{
  "contractName": "KCLWealth",
  "abi": [
    {
      "inputs": [
        {
          "internalType": "address",
          "name": "_token",
          "type": "address"
        }
      ],
      "stateMutability": "nonpayable",
      "type": "constructor"
    },
    {
      "anonymous": false,
      "inputs": [
        {
          "indexed": true,
          "internalType": "address",
          "name": "previousOwner",
          "type": "address"
        },
        {
          "indexed": true,
          "internalType": "address",
          "name": "newOwner",
          "type": "address"
        }
      ],
      "name": "OwnershipTransferred",
      "type": "event"
    },
    {
      "inputs": [],
      "name": "adminTax",
      "outputs": [
        {
          "internalType": "uint256",
          "name": "",
          "type": "uint256"
        }
      ],
      "stateMutability": "view",
      "type": "function"
    },
    {
      "inputs": [],
      "name": "distributeTax",
      "outputs": [
        {
          "internalType": "uint256",
          "name": "",
          "type": "uint256"
        }
      ],
      "stateMutability": "view",
      "type": "function"
    },
    {
      "inputs": [],
      "name": "earlyWithdrawalPercent",
      "outputs": [
        {
          "internalType": "uint256",
          "name": "",
          "type": "uint256"
        }
      ],
      "stateMutability": "view",
      "type": "function"
    },
    {
      "inputs": [
        {
          "internalType": "address",
          "name": "",
          "type": "address"
        }
      ],
      "name": "isBasic",
      "outputs": [
        {
          "internalType": "bool",
          "name": "",
          "type": "bool"
        }
      ],
      "stateMutability": "view",
      "type": "function"
    },
    {
      "inputs": [
        {
          "internalType": "address",
          "name": "",
          "type": "address"
        }
      ],
      "name": "isInvestor",
      "outputs": [
        {
          "internalType": "bool",
          "name": "",
          "type": "bool"
        }
      ],
      "stateMutability": "view",
      "type": "function"
    },
    {
      "inputs": [
        {
          "internalType": "address",
          "name": "",
          "type": "address"
        }
      ],
      "name": "isPremium",
      "outputs": [
        {
          "internalType": "bool",
          "name": "",
          "type": "bool"
        }
      ],
      "stateMutability": "view",
      "type": "function"
    },
    {
      "inputs": [
        {
          "internalType": "address",
          "name": "",
          "type": "address"
        }
      ],
      "name": "isStandard",
      "outputs": [
        {
          "internalType": "bool",
          "name": "",
          "type": "bool"
        }
      ],
      "stateMutability": "view",
      "type": "function"
    },
    {
      "inputs": [],
      "name": "owner",
      "outputs": [
        {
          "internalType": "address",
          "name": "",
          "type": "address"
        }
      ],
      "stateMutability": "view",
      "type": "function"
    },
    {
      "inputs": [
        {
          "internalType": "uint256",
          "name": "",
          "type": "uint256"
        }
      ],
      "name": "packPrices",
      "outputs": [
        {
          "internalType": "uint256",
          "name": "",
          "type": "uint256"
        }
      ],
      "stateMutability": "view",
      "type": "function"
    },
    {
      "inputs": [],
      "name": "renounceOwnership",
      "outputs": [],
      "stateMutability": "nonpayable",
      "type": "function"
    },
    {
      "inputs": [],
      "name": "token",
      "outputs": [
        {
          "internalType": "contract ERC20",
          "name": "",
          "type": "address"
        }
      ],
      "stateMutability": "view",
      "type": "function"
    },
    {
      "inputs": [],
      "name": "tokenDecimals",
      "outputs": [
        {
          "internalType": "uint256",
          "name": "",
          "type": "uint256"
        }
      ],
      "stateMutability": "view",
      "type": "function"
    },
    {
      "inputs": [
        {
          "internalType": "address",
          "name": "newOwner",
          "type": "address"
        }
      ],
      "name": "transferOwnership",
      "outputs": [],
      "stateMutability": "nonpayable",
      "type": "function"
    },
    {
      "inputs": [],
      "name": "up1Tax",
      "outputs": [
        {
          "internalType": "uint256",
          "name": "",
          "type": "uint256"
        }
      ],
      "stateMutability": "view",
      "type": "function"
    },
    {
      "inputs": [],
      "name": "up2Tax",
      "outputs": [
        {
          "internalType": "uint256",
          "name": "",
          "type": "uint256"
        }
      ],
      "stateMutability": "view",
      "type": "function"
    },
    {
      "inputs": [],
      "name": "up3Tax",
      "outputs": [
        {
          "internalType": "uint256",
          "name": "",
          "type": "uint256"
        }
      ],
      "stateMutability": "view",
      "type": "function"
    },
    {
      "inputs": [],
      "name": "up4Tax",
      "outputs": [
        {
          "internalType": "uint256",
          "name": "",
          "type": "uint256"
        }
      ],
      "stateMutability": "view",
      "type": "function"
    },
    {
      "inputs": [
        {
          "internalType": "uint256",
          "name": "plan",
          "type": "uint256"
        }
      ],
      "name": "buyKCLPoints",
      "outputs": [],
      "stateMutability": "nonpayable",
      "type": "function"
    },
    {
      "inputs": [
        {
          "internalType": "address",
          "name": "_referrer",
          "type": "address"
        },
        {
          "internalType": "uint256",
          "name": "plan",
          "type": "uint256"
        }
      ],
      "name": "buyKCLPoints",
      "outputs": [],
      "stateMutability": "nonpayable",
      "type": "function"
    },
    {
      "inputs": [],
      "name": "getKCLPoints",
      "outputs": [
        {
          "internalType": "uint256",
          "name": "",
          "type": "uint256"
        }
      ],
      "stateMutability": "view",
      "type": "function"
    },
    {
      "inputs": [],
      "name": "getRewardBalance",
      "outputs": [
        {
          "internalType": "uint256",
          "name": "",
          "type": "uint256"
        }
      ],
      "stateMutability": "view",
      "type": "function"
    },
    {
      "inputs": [],
      "name": "getReferralBalance",
      "outputs": [
        {
          "internalType": "uint256",
          "name": "",
          "type": "uint256"
        }
      ],
      "stateMutability": "view",
      "type": "function"
    },
    {
      "inputs": [],
      "name": "getMyPlan",
      "outputs": [
        {
          "internalType": "uint256",
          "name": "",
          "type": "uint256"
        }
      ],
      "stateMutability": "view",
      "type": "function"
    },
    {
      "inputs": [],
      "name": "withdrawPoints",
      "outputs": [],
      "stateMutability": "nonpayable",
      "type": "function"
    },
    {
      "inputs": [],
      "name": "withdrawReferrals",
      "outputs": [],
      "stateMutability": "nonpayable",
      "type": "function"
    },
    {
      "inputs": [],
      "name": "withdrawRewards",
      "outputs": [],
      "stateMutability": "nonpayable",
      "type": "function"
    },
    {
      "inputs": [],
      "name": "getFullTax",
      "outputs": [
        {
          "internalType": "uint256",
          "name": "",
          "type": "uint256"
        }
      ],
      "stateMutability": "view",
      "type": "function"
    },
    {
      "inputs": [
        {
          "internalType": "uint256",
          "name": "_newTax",
          "type": "uint256"
        }
      ],
      "name": "changeAdminTax",
      "outputs": [],
      "stateMutability": "nonpayable",
      "type": "function"
    },
    {
      "inputs": [
        {
          "internalType": "uint256",
          "name": "_newTax",
          "type": "uint256"
        }
      ],
      "name": "changeDistributionTax",
      "outputs": [],
      "stateMutability": "nonpayable",
      "type": "function"
    },
    {
      "inputs": [
        {
          "internalType": "uint256",
          "name": "_newTax",
          "type": "uint256"
        }
      ],
      "name": "changeUp1Tax",
      "outputs": [],
      "stateMutability": "nonpayable",
      "type": "function"
    },
    {
      "inputs": [
        {
          "internalType": "uint256",
          "name": "_newTax",
          "type": "uint256"
        }
      ],
      "name": "changeUp2Tax",
      "outputs": [],
      "stateMutability": "nonpayable",
      "type": "function"
    },
    {
      "inputs": [
        {
          "internalType": "uint256",
          "name": "_newTax",
          "type": "uint256"
        }
      ],
      "name": "changeUp3Tax",
      "outputs": [],
      "stateMutability": "nonpayable",
      "type": "function"
    },
    {
      "inputs": [
        {
          "internalType": "uint256",
          "name": "_newTax",
          "type": "uint256"
        }
      ],
      "name": "changeUp4Tax",
      "outputs": [],
      "stateMutability": "nonpayable",
      "type": "function"
    },
    {
      "inputs": [
        {
          "internalType": "uint256",
          "name": "_newTax",
          "type": "uint256"
        }
      ],
      "name": "changeEarlyWithdrawalTax",
      "outputs": [],
      "stateMutability": "nonpayable",
      "type": "function"
    },
    {
      "inputs": [
        {
          "internalType": "address",
          "name": "_user",
          "type": "address"
        }
      ],
      "name": "blackListAddress",
      "outputs": [],
      "stateMutability": "nonpayable",
      "type": "function"
    },
    {
      "inputs": [
        {
          "internalType": "address",
          "name": "_user",
          "type": "address"
        }
      ],
      "name": "excludeFromTax",
      "outputs": [],
      "stateMutability": "nonpayable",
      "type": "function"
    },
    {
      "inputs": [
        {
          "internalType": "address",
          "name": "_newWallet",
          "type": "address"
        }
      ],
      "name": "changeAdminWallet",
      "outputs": [],
      "stateMutability": "nonpayable",
      "type": "function"
    },
    {
      "inputs": [
        {
          "internalType": "uint256",
          "name": "_newPrice",
          "type": "uint256"
        }
      ],
      "name": "setBasicPrice",
      "outputs": [],
      "stateMutability": "nonpayable",
      "type": "function"
    },
    {
      "inputs": [
        {
          "internalType": "uint256",
          "name": "_newPrice",
          "type": "uint256"
        }
      ],
      "name": "setStandardPrice",
      "outputs": [],
      "stateMutability": "nonpayable",
      "type": "function"
    },
    {
      "inputs": [
        {
          "internalType": "uint256",
          "name": "_newPrice",
          "type": "uint256"
        }
      ],
      "name": "setPremiumPrice",
      "outputs": [],
      "stateMutability": "nonpayable",
      "type": "function"
    }
  ],
  "bytecode": "0x60806040526040518060600160405280603261ffff168152602001606461ffff1681526020016101f461ffff16815250600b90600362000041929190620003ab565b50600a600d55600a600e556005600f5560026010556002601155600160125560056013553480156200007257600080fd5b50604051620055f3380380620055f383398181016040528101906200009891906200048c565b620000b8620000ac620002df60201b60201c565b620002e760201b60201c565b80600260006101000a81548173ffffffffffffffffffffffffffffffffffffffff021916908373ffffffffffffffffffffffffffffffffffffffff160217905550600260009054906101000a900473ffffffffffffffffffffffffffffffffffffffff1673ffffffffffffffffffffffffffffffffffffffff1663313ce5676040518163ffffffff1660e01b815260040160206040518083038186803b1580156200016257600080fd5b505afa15801562000177573d6000803e3d6000fd5b505050506040513d601f19601f820116820180604052508101906200019d9190620004fc565b60ff16600c81905550600c54600a620001b79190620006bb565b600b600081548110620001cf57620001ce6200070c565b5b9060005260206000200154620001e691906200073b565b600b600081548110620001fe57620001fd6200070c565b5b9060005260206000200181905550600c54600a6200021d9190620006bb565b600b6001815481106200023557620002346200070c565b5b90600052602060002001546200024c91906200073b565b600b6001815481106200026457620002636200070c565b5b9060005260206000200181905550600c54600a620002839190620006bb565b600b6002815481106200029b576200029a6200070c565b5b9060005260206000200154620002b291906200073b565b600b600281548110620002ca57620002c96200070c565b5b9060005260206000200181905550506200079c565b600033905090565b60008060009054906101000a900473ffffffffffffffffffffffffffffffffffffffff169050816000806101000a81548173ffffffffffffffffffffffffffffffffffffffff021916908373ffffffffffffffffffffffffffffffffffffffff1602179055508173ffffffffffffffffffffffffffffffffffffffff168173ffffffffffffffffffffffffffffffffffffffff167f8be0079c531659141344cd1fd0a4f28419497f9722a3daafe3b4186f6b6457e060405160405180910390a35050565b828054828255906000526020600020908101928215620003f0579160200282015b82811115620003ef578251829061ffff16905591602001919060010190620003cc565b5b509050620003ff919062000403565b5090565b5b808211156200041e57600081600090555060010162000404565b5090565b600080fd5b600073ffffffffffffffffffffffffffffffffffffffff82169050919050565b6000620004548262000427565b9050919050565b620004668162000447565b81146200047257600080fd5b50565b60008151905062000486816200045b565b92915050565b600060208284031215620004a557620004a462000422565b5b6000620004b58482850162000475565b91505092915050565b600060ff82169050919050565b620004d681620004be565b8114620004e257600080fd5b50565b600081519050620004f681620004cb565b92915050565b60006020828403121562000515576200051462000422565b5b60006200052584828501620004e5565b91505092915050565b7f4e487b7100000000000000000000000000000000000000000000000000000000600052601160045260246000fd5b60008160011c9050919050565b6000808291508390505b6001851115620005bc578086048111156200059457620005936200052e565b5b6001851615620005a45780820291505b8081029050620005b4856200055d565b945062000574565b94509492505050565b600082620005d75760019050620006aa565b81620005e75760009050620006aa565b81600181146200060057600281146200060b5762000641565b6001915050620006aa565b60ff84111562000620576200061f6200052e565b5b8360020a9150848211156200063a57620006396200052e565b5b50620006aa565b5060208310610133831016604e8410600b84101617156200067b5782820a9050838111156200067557620006746200052e565b5b620006aa565b6200068a84848460016200056a565b92509050818404811115620006a457620006a36200052e565b5b81810290505b9392505050565b6000819050919050565b6000620006c882620006b1565b9150620006d583620006b1565b9250620007047fffffffffffffffffffffffffffffffffffffffffffffffffffffffffffffffff8484620005c5565b905092915050565b7f4e487b7100000000000000000000000000000000000000000000000000000000600052603260045260246000fd5b60006200074882620006b1565b91506200075583620006b1565b9250817fffffffffffffffffffffffffffffffffffffffffffffffffffffffffffffffff04831182151516156200079157620007906200052e565b5b828202905092915050565b614e4780620007ac6000396000f3fe608060405234801561001057600080fd5b50600436106102485760003560e01c80638da5cb5b1161013b578063c7b8981c116100b8578063dba21d8e1161007c578063dba21d8e14610657578063eb26b2a214610661578063ec7075be1461067d578063f2fde38b146106ad578063fc0c546a146106c957610248565b8063c7b8981c146105c5578063cb3be8ba146105cf578063cdc0ad03146105eb578063cee2a9cf14610609578063d0b661f91461063957610248565b8063b219693a116100ff578063b219693a14610533578063b6e6899f1461054f578063b98bbf611461056d578063c021b1bd14610589578063c1d0de1a146105a757610248565b80638da5cb5b146104b55780638e67abe9146104d357806392f934bb146104ef578063a36188151461050d578063a60f12221461051757610248565b806344d4f3cf116101c957806360d1259e1161018d57806360d1259e14610413578063715018a61461042f578063742fe0d414610439578063777992fc1461046957806377cedd241461048557610248565b806344d4f3cf1461038357806349d429a01461039f5780634b43b582146103bb5780634c330471146103d75780635e42b455146103f557610248565b806337dd5d9b1161021057806337dd5d9b146102dd57806339ded4e9146102fb5780633b0e0133146103195780633b97e856146103355780634488d11a1461035357610248565b806301dd064c1461024d5780630abd5d1c1461026b5780630f3d9c9f14610287578063161e4ccc146102a55780632a958179146102c1575b600080fd5b6102556106e7565b60405161026291906145fe565b60405180910390f35b6102856004803603810190610280919061464a565b6106ed565b005b61028f61188f565b60405161029c91906145fe565b60405180910390f35b6102bf60048036038101906102ba919061464a565b611895565b005b6102db60048036038101906102d6919061464a565b61191b565b005b6102e56119be565b6040516102f291906145fe565b60405180910390f35b6103036119c4565b60405161031091906145fe565b60405180910390f35b610333600480360381019061032e91906146d5565b6119ca565b005b61033d611aa1565b60405161034a91906145fe565b60405180910390f35b61036d600480360381019061036891906146d5565b611aa7565b60405161037a919061471d565b60405180910390f35b61039d6004803603810190610398919061464a565b611ac7565b005b6103b960048036038101906103b4919061464a565b611b4d565b005b6103d560048036038101906103d091906146d5565b611bf0565b005b6103df611c78565b6040516103ec91906145fe565b60405180910390f35b6103fd611cbf565b60405161040a91906145fe565b60405180910390f35b61042d600480360381019061042891906146d5565b611d06565b005b610437611ddd565b005b610453600480360381019061044e91906146d5565b611e65565b604051610460919061471d565b60405180910390f35b610483600480360381019061047e919061464a565b611e85565b005b61049f600480360381019061049a919061464a565b611f0b565b6040516104ac91906145fe565b60405180910390f35b6104bd611f2f565b6040516104ca9190614747565b60405180910390f35b6104ed60048036038101906104e8919061464a565b611f58565b005b6104f7611fde565b60405161050491906145fe565b60405180910390f35b610515612048565b005b610531600480360381019061052c919061464a565b612500565b005b61054d6004803603810190610548919061464a565b612586565b005b610557612629565b60405161056491906145fe565b60405180910390f35b6105876004803603810190610582919061464a565b61262f565b005b6105916126b5565b60405161059e91906145fe565b60405180910390f35b6105af6127d0565b6040516105bc91906145fe565b60405180910390f35b6105cd6127d6565b005b6105e960048036038101906105e49190614762565b612994565b005b6105f36140e8565b60405161060091906145fe565b60405180910390f35b610623600480360381019061061e91906146d5565b61412f565b604051610630919061471d565b60405180910390f35b61064161414f565b60405161064e91906145fe565b60405180910390f35b61065f614155565b005b61067b6004803603810190610676919061464a565b614313565b005b610697600480360381019061069291906146d5565b614399565b6040516106a4919061471d565b60405180910390f35b6106c760048036038101906106c291906146d5565b6143b9565b005b6106d16144b1565b6040516106de9190614801565b60405180910390f35b600f5481565b60008114806106fc5750600181145b806107075750600281145b610746576040517f08c379a000000000000000000000000000000000000000000000000000000000815260040161073d90614879565b60405180910390fd5b600360003373ffffffffffffffffffffffffffffffffffffffff1673ffffffffffffffffffffffffffffffffffffffff16815260200190815260200160002060009054906101000a900460ff16156107d3576040517f08c379a00000000000000000000000000000000000000000000000000000000081526004016107ca906148e5565b60405180910390fd5b600860003373ffffffffffffffffffffffffffffffffffffffff1673ffffffffffffffffffffffffffffffffffffffff16815260200190815260200160002060009054906101000a900460ff161561082a57600080fd5b6000811415610890576001601760003373ffffffffffffffffffffffffffffffffffffffff1673ffffffffffffffffffffffffffffffffffffffff16815260200190815260200160002060006101000a81548160ff021916908315150217905550610950565b60018114156108f6576001601860003373ffffffffffffffffffffffffffffffffffffffff1673ffffffffffffffffffffffffffffffffffffffff16815260200190815260200160002060006101000a81548160ff02191690831515021790555061094f565b6001601960003373ffffffffffffffffffffffffffffffffffffffff1673ffffffffffffffffffffffffffffffffffffffff16815260200190815260200160002060006101000a81548160ff0219169083151502179055505b5b600260009054906101000a900473ffffffffffffffffffffffffffffffffffffffff1673ffffffffffffffffffffffffffffffffffffffff166323b872dd3330600b85815481106109a4576109a3614905565b5b90600052602060002001546040518463ffffffff1660e01b81526004016109cd93929190614934565b602060405180830381600087803b1580156109e757600080fd5b505af11580156109fb573d6000803e3d6000fd5b505050506040513d601f19601f82011682018060405250810190610a1f9190614997565b506000610a2a611fde565b90506000610a7e826064610a3e91906149f3565b610a706064600b8781548110610a5757610a56614905565b5b90600052602060002001546144d790919063ffffffff16565b6144ed90919063ffffffff16565b9050600460003373ffffffffffffffffffffffffffffffffffffffff1673ffffffffffffffffffffffffffffffffffffffff16815260200190815260200160002060009054906101000a900460ff16610d2557610b2381600560003373ffffffffffffffffffffffffffffffffffffffff1673ffffffffffffffffffffffffffffffffffffffff1681526020019081526020016000205461450390919063ffffffff16565b600560003373ffffffffffffffffffffffffffffffffffffffff1673ffffffffffffffffffffffffffffffffffffffff16815260200190815260200160002081905550610b7b8160015461450390919063ffffffff16565b6001819055506001600860003373ffffffffffffffffffffffffffffffffffffffff1673ffffffffffffffffffffffffffffffffffffffff16815260200190815260200160002060006101000a81548160ff0219169083151502179055506000831415610c4a576014339080600181540180825580915050600190039060005260206000200160009091909190916101000a81548173ffffffffffffffffffffffffffffffffffffffff021916908373ffffffffffffffffffffffffffffffffffffffff160217905550610d20565b6001831415610cbb576015339080600181540180825580915050600190039060005260206000200160009091909190916101000a81548173ffffffffffffffffffffffffffffffffffffffff021916908373ffffffffffffffffffffffffffffffffffffffff160217905550610d1f565b6016339080600181540180825580915050600190039060005260206000200160009091909190916101000a81548173ffffffffffffffffffffffffffffffffffffffff021916908373ffffffffffffffffffffffffffffffffffffffff1602179055505b5b610fb7565b610d95600b8481548110610d3c57610d3b614905565b5b9060005260206000200154600560003373ffffffffffffffffffffffffffffffffffffffff1673ffffffffffffffffffffffffffffffffffffffff1681526020019081526020016000205461450390919063ffffffff16565b600560003373ffffffffffffffffffffffffffffffffffffffff1673ffffffffffffffffffffffffffffffffffffffff16815260200190815260200160002081905550610e0b600b8481548110610def57610dee614905565b5b906000526020600020015460015461450390919063ffffffff16565b6001819055506001600860003373ffffffffffffffffffffffffffffffffffffffff1673ffffffffffffffffffffffffffffffffffffffff16815260200190815260200160002060006101000a81548160ff0219169083151502179055506000831415610eda576014339080600181540180825580915050600190039060005260206000200160009091909190916101000a81548173ffffffffffffffffffffffffffffffffffffffff021916908373ffffffffffffffffffffffffffffffffffffffff160217905550610fb0565b6001831415610f4b576015339080600181540180825580915050600190039060005260206000200160009091909190916101000a81548173ffffffffffffffffffffffffffffffffffffffff021916908373ffffffffffffffffffffffffffffffffffffffff160217905550610faf565b6016339080600181540180825580915050600190039060005260206000200160009091909190916101000a81548173ffffffffffffffffffffffffffffffffffffffff021916908373ffffffffffffffffffffffffffffffffffffffff1602179055505b5b505061188c565b42600960003373ffffffffffffffffffffffffffffffffffffffff1673ffffffffffffffffffffffffffffffffffffffff168152602001908152602001600020819055506110108160015461450390919063ffffffff16565b600181905550600061105e600d546110506064600b888154811061103757611036614905565b5b90600052602060002001546144d790919063ffffffff16565b6144ed90919063ffffffff16565b9050600260009054906101000a900473ffffffffffffffffffffffffffffffffffffffff1673ffffffffffffffffffffffffffffffffffffffff1663a9059cbb6110a6611f2f565b836040518363ffffffff1660e01b81526004016110c4929190614a27565b602060405180830381600087803b1580156110de57600080fd5b505af11580156110f2573d6000803e3d6000fd5b505050506040513d601f19601f820116820180604052508101906111169190614997565b50601760003373ffffffffffffffffffffffffffffffffffffffff1673ffffffffffffffffffffffffffffffffffffffff16815260200190815260200160002060009054906101000a900460ff16156113925760006111c86014805490506111ba600e546111ac6064600b8b8154811061119357611192614905565b5b90600052602060002001546144d790919063ffffffff16565b6144ed90919063ffffffff16565b6144d790919063ffffffff16565b905060005b60148054905081101561138f5760176000601483815481106111f2576111f1614905565b5b9060005260206000200160009054906101000a900473ffffffffffffffffffffffffffffffffffffffff1673ffffffffffffffffffffffffffffffffffffffff1673ffffffffffffffffffffffffffffffffffffffff16815260200190815260200160002060009054906101000a900460ff161561137c576112fa82600660006014858154811061128657611285614905565b5b9060005260206000200160009054906101000a900473ffffffffffffffffffffffffffffffffffffffff1673ffffffffffffffffffffffffffffffffffffffff1673ffffffffffffffffffffffffffffffffffffffff1681526020019081526020016000205461450390919063ffffffff16565b600660006014848154811061131257611311614905565b5b9060005260206000200160009054906101000a900473ffffffffffffffffffffffffffffffffffffffff1673ffffffffffffffffffffffffffffffffffffffff1673ffffffffffffffffffffffffffffffffffffffff168152602001908152602001600020819055505b808061138790614a50565b9150506111cd565b50505b601860003373ffffffffffffffffffffffffffffffffffffffff1673ffffffffffffffffffffffffffffffffffffffff16815260200190815260200160002060009054906101000a900460ff161561160d576000611443601580549050611435600e546114276064600b8b8154811061140e5761140d614905565b5b90600052602060002001546144d790919063ffffffff16565b6144ed90919063ffffffff16565b6144d790919063ffffffff16565b905060005b60158054905081101561160a57601860006015838154811061146d5761146c614905565b5b9060005260206000200160009054906101000a900473ffffffffffffffffffffffffffffffffffffffff1673ffffffffffffffffffffffffffffffffffffffff1673ffffffffffffffffffffffffffffffffffffffff16815260200190815260200160002060009054906101000a900460ff16156115f75761157582600660006015858154811061150157611500614905565b5b9060005260206000200160009054906101000a900473ffffffffffffffffffffffffffffffffffffffff1673ffffffffffffffffffffffffffffffffffffffff1673ffffffffffffffffffffffffffffffffffffffff1681526020019081526020016000205461450390919063ffffffff16565b600660006015848154811061158d5761158c614905565b5b9060005260206000200160009054906101000a900473ffffffffffffffffffffffffffffffffffffffff1673ffffffffffffffffffffffffffffffffffffffff1673ffffffffffffffffffffffffffffffffffffffff168152602001908152602001600020819055505b808061160290614a50565b915050611448565b50505b601960003373ffffffffffffffffffffffffffffffffffffffff1673ffffffffffffffffffffffffffffffffffffffff16815260200190815260200160002060009054906101000a900460ff16156118885760006116be6016805490506116b0600e546116a26064600b8b8154811061168957611688614905565b5b90600052602060002001546144d790919063ffffffff16565b6144ed90919063ffffffff16565b6144d790919063ffffffff16565b905060005b6016805490508110156118855760196000601683815481106116e8576116e7614905565b5b9060005260206000200160009054906101000a900473ffffffffffffffffffffffffffffffffffffffff1673ffffffffffffffffffffffffffffffffffffffff1673ffffffffffffffffffffffffffffffffffffffff16815260200190815260200160002060009054906101000a900460ff1615611872576117f082600660006016858154811061177c5761177b614905565b5b9060005260206000200160009054906101000a900473ffffffffffffffffffffffffffffffffffffffff1673ffffffffffffffffffffffffffffffffffffffff1673ffffffffffffffffffffffffffffffffffffffff1681526020019081526020016000205461450390919063ffffffff16565b600660006016848154811061180857611807614905565b5b9060005260206000200160009054906101000a900473ffffffffffffffffffffffffffffffffffffffff1673ffffffffffffffffffffffffffffffffffffffff1673ffffffffffffffffffffffffffffffffffffffff168152602001908152602001600020819055505b808061187d90614a50565b9150506116c3565b50505b5050505b50565b600e5481565b61189d614519565b73ffffffffffffffffffffffffffffffffffffffff166118bb611f2f565b73ffffffffffffffffffffffffffffffffffffffff1614611911576040517f08c379a000000000000000000000000000000000000000000000000000000000815260040161190890614ae5565b60405180910390fd5b8060138190555050565b611923614519565b73ffffffffffffffffffffffffffffffffffffffff16611941611f2f565b73ffffffffffffffffffffffffffffffffffffffff1614611997576040517f08c379a000000000000000000000000000000000000000000000000000000000815260040161198e90614ae5565b60405180910390fd5b80600b6002815481106119ad576119ac614905565b5b906000526020600020018190555050565b60105481565b600d5481565b6119d2614519565b73ffffffffffffffffffffffffffffffffffffffff166119f0611f2f565b73ffffffffffffffffffffffffffffffffffffffff1614611a46576040517f08c379a0000000000000000000000000000000000000000000000000000000008152600401611a3d90614ae5565b60405180910390fd5b6001600360008373ffffffffffffffffffffffffffffffffffffffff1673ffffffffffffffffffffffffffffffffffffffff16815260200190815260200160002060006101000a81548160ff02191690831515021790555050565b600c5481565b60176020528060005260406000206000915054906101000a900460ff1681565b611acf614519565b73ffffffffffffffffffffffffffffffffffffffff16611aed611f2f565b73ffffffffffffffffffffffffffffffffffffffff1614611b43576040517f08c379a0000000000000000000000000000000000000000000000000000000008152600401611b3a90614ae5565b60405180910390fd5b8060108190555050565b611b55614519565b73ffffffffffffffffffffffffffffffffffffffff16611b73611f2f565b73ffffffffffffffffffffffffffffffffffffffff1614611bc9576040517f08c379a0000000000000000000000000000000000000000000000000000000008152600401611bc090614ae5565b60405180910390fd5b80600b600181548110611bdf57611bde614905565b5b906000526020600020018190555050565b611bf8614519565b73ffffffffffffffffffffffffffffffffffffffff16611c16611f2f565b73ffffffffffffffffffffffffffffffffffffffff1614611c6c576040517f08c379a0000000000000000000000000000000000000000000000000000000008152600401611c6390614ae5565b60405180910390fd5b611c75816143b9565b50565b6000600760003373ffffffffffffffffffffffffffffffffffffffff1673ffffffffffffffffffffffffffffffffffffffff16815260200190815260200160002054905090565b6000600660003373ffffffffffffffffffffffffffffffffffffffff1673ffffffffffffffffffffffffffffffffffffffff16815260200190815260200160002054905090565b611d0e614519565b73ffffffffffffffffffffffffffffffffffffffff16611d2c611f2f565b73ffffffffffffffffffffffffffffffffffffffff1614611d82576040517f08c379a0000000000000000000000000000000000000000000000000000000008152600401611d7990614ae5565b60405180910390fd5b6001600460008373ffffffffffffffffffffffffffffffffffffffff1673ffffffffffffffffffffffffffffffffffffffff16815260200190815260200160002060006101000a81548160ff02191690831515021790555050565b611de5614519565b73ffffffffffffffffffffffffffffffffffffffff16611e03611f2f565b73ffffffffffffffffffffffffffffffffffffffff1614611e59576040517f08c379a0000000000000000000000000000000000000000000000000000000008152600401611e5090614ae5565b60405180910390fd5b611e636000614521565b565b60196020528060005260406000206000915054906101000a900460ff1681565b611e8d614519565b73ffffffffffffffffffffffffffffffffffffffff16611eab611f2f565b73ffffffffffffffffffffffffffffffffffffffff1614611f01576040517f08c379a0000000000000000000000000000000000000000000000000000000008152600401611ef890614ae5565b60405180910390fd5b80600e8190555050565b600b8181548110611f1b57600080fd5b906000526020600020016000915090505481565b60008060009054906101000a900473ffffffffffffffffffffffffffffffffffffffff16905090565b611f60614519565b73ffffffffffffffffffffffffffffffffffffffff16611f7e611f2f565b73ffffffffffffffffffffffffffffffffffffffff1614611fd4576040517f08c379a0000000000000000000000000000000000000000000000000000000008152600401611fcb90614ae5565b60405180910390fd5b8060128190555050565b60008061203f601254612031601154612023601054612015600f54612007600d54600e54614503565b61450390919063ffffffff16565b61450390919063ffffffff16565b61450390919063ffffffff16565b61450390919063ffffffff16565b90508091505090565b6000600560003373ffffffffffffffffffffffffffffffffffffffff1673ffffffffffffffffffffffffffffffffffffffff16815260200190815260200160002054116120ca576040517f08c379a00000000000000000000000000000000000000000000000000000000081526004016120c190614b51565b60405180910390fd5b6000601760003373ffffffffffffffffffffffffffffffffffffffff1673ffffffffffffffffffffffffffffffffffffffff16815260200190815260200160002060006101000a81548160ff0219169083151502179055506000601860003373ffffffffffffffffffffffffffffffffffffffff1673ffffffffffffffffffffffffffffffffffffffff16815260200190815260200160002060006101000a81548160ff0219169083151502179055506000601960003373ffffffffffffffffffffffffffffffffffffffff1673ffffffffffffffffffffffffffffffffffffffff16815260200190815260200160002060006101000a81548160ff0219169083151502179055506000600860003373ffffffffffffffffffffffffffffffffffffffff1673ffffffffffffffffffffffffffffffffffffffff16815260200190815260200160002060006101000a81548160ff0219169083151502179055506000600560003373ffffffffffffffffffffffffffffffffffffffff1673ffffffffffffffffffffffffffffffffffffffff1681526020019081526020016000205490506000600560003373ffffffffffffffffffffffffffffffffffffffff1673ffffffffffffffffffffffffffffffffffffffff16815260200190815260200160002081905550624f1a00600960003373ffffffffffffffffffffffffffffffffffffffff1673ffffffffffffffffffffffffffffffffffffffff168152602001908152602001600020546123019190614b71565b421080156123595750600460003373ffffffffffffffffffffffffffffffffffffffff1673ffffffffffffffffffffffffffffffffffffffff16815260200190815260200160002060009054906101000a900460ff16155b1561244c576000612394601354606461237291906149f3565b6123866064856144d790919063ffffffff16565b6144ed90919063ffffffff16565b9050600260009054906101000a900473ffffffffffffffffffffffffffffffffffffffff1673ffffffffffffffffffffffffffffffffffffffff1663a9059cbb33836040518363ffffffff1660e01b81526004016123f3929190614a27565b602060405180830381600087803b15801561240d57600080fd5b505af1158015612421573d6000803e3d6000fd5b505050506040513d601f19601f820116820180604052508101906124459190614997565b50506124fd565b600260009054906101000a900473ffffffffffffffffffffffffffffffffffffffff1673ffffffffffffffffffffffffffffffffffffffff1663a9059cbb33836040518363ffffffff1660e01b81526004016124a9929190614a27565b602060405180830381600087803b1580156124c357600080fd5b505af11580156124d7573d6000803e3d6000fd5b505050506040513d601f19601f820116820180604052508101906124fb9190614997565b505b50565b612508614519565b73ffffffffffffffffffffffffffffffffffffffff16612526611f2f565b73ffffffffffffffffffffffffffffffffffffffff161461257c576040517f08c379a000000000000000000000000000000000000000000000000000000000815260040161257390614ae5565b60405180910390fd5b80600d8190555050565b61258e614519565b73ffffffffffffffffffffffffffffffffffffffff166125ac611f2f565b73ffffffffffffffffffffffffffffffffffffffff1614612602576040517f08c379a00000000000000000000000000000000000000000000000000000000081526004016125f990614ae5565b60405180910390fd5b80600b60008154811061261857612617614905565b5b906000526020600020018190555050565b60135481565b612637614519565b73ffffffffffffffffffffffffffffffffffffffff16612655611f2f565b73ffffffffffffffffffffffffffffffffffffffff16146126ab576040517f08c379a00000000000000000000000000000000000000000000000000000000081526004016126a290614ae5565b60405180910390fd5b80600f8190555050565b6000601760003373ffffffffffffffffffffffffffffffffffffffff1673ffffffffffffffffffffffffffffffffffffffff16815260200190815260200160002060009054906101000a900460ff161561271257600090506127cd565b601860003373ffffffffffffffffffffffffffffffffffffffff1673ffffffffffffffffffffffffffffffffffffffff16815260200190815260200160002060009054906101000a900460ff161561276d57600190506127cd565b601960003373ffffffffffffffffffffffffffffffffffffffff1673ffffffffffffffffffffffffffffffffffffffff16815260200190815260200160002060009054906101000a900460ff16156127c857600290506127cd565b60c890505b90565b60125481565b6000600660003373ffffffffffffffffffffffffffffffffffffffff1673ffffffffffffffffffffffffffffffffffffffff1681526020019081526020016000205411612858576040517f08c379a000000000000000000000000000000000000000000000000000000000815260040161284f90614c13565b60405180910390fd5b6000600660003373ffffffffffffffffffffffffffffffffffffffff1673ffffffffffffffffffffffffffffffffffffffff1681526020019081526020016000205490506000600660003373ffffffffffffffffffffffffffffffffffffffff1673ffffffffffffffffffffffffffffffffffffffff16815260200190815260200160002081905550600260009054906101000a900473ffffffffffffffffffffffffffffffffffffffff1673ffffffffffffffffffffffffffffffffffffffff1663a9059cbb33836040518363ffffffff1660e01b815260040161293e929190614a27565b602060405180830381600087803b15801561295857600080fd5b505af115801561296c573d6000803e3d6000fd5b505050506040513d601f19601f820116820180604052508101906129909190614997565b5050565b60008114806129a35750600181145b806129ae5750600281145b6129ed576040517f08c379a00000000000000000000000000000000000000000000000000000000081526004016129e490614879565b60405180910390fd5b600360003373ffffffffffffffffffffffffffffffffffffffff1673ffffffffffffffffffffffffffffffffffffffff16815260200190815260200160002060009054906101000a900460ff1615612a7a576040517f08c379a0000000000000000000000000000000000000000000000000000000008152600401612a71906148e5565b60405180910390fd5b600860003373ffffffffffffffffffffffffffffffffffffffff1673ffffffffffffffffffffffffffffffffffffffff16815260200190815260200160002060009054906101000a900460ff1615612ad157600080fd5b6000811415612b37576001601760003373ffffffffffffffffffffffffffffffffffffffff1673ffffffffffffffffffffffffffffffffffffffff16815260200190815260200160002060006101000a81548160ff021916908315150217905550612bf7565b6001811415612b9d576001601860003373ffffffffffffffffffffffffffffffffffffffff1673ffffffffffffffffffffffffffffffffffffffff16815260200190815260200160002060006101000a81548160ff021916908315150217905550612bf6565b6001601960003373ffffffffffffffffffffffffffffffffffffffff1673ffffffffffffffffffffffffffffffffffffffff16815260200190815260200160002060006101000a81548160ff0219169083151502179055505b5b600260009054906101000a900473ffffffffffffffffffffffffffffffffffffffff1673ffffffffffffffffffffffffffffffffffffffff166323b872dd3330600b8581548110612c4b57612c4a614905565b5b90600052602060002001546040518463ffffffff1660e01b8152600401612c7493929190614934565b602060405180830381600087803b158015612c8e57600080fd5b505af1158015612ca2573d6000803e3d6000fd5b505050506040513d601f19601f82011682018060405250810190612cc69190614997565b506000612cd1611fde565b905082600a60003373ffffffffffffffffffffffffffffffffffffffff1673ffffffffffffffffffffffffffffffffffffffff16815260200190815260200160002060006101000a81548173ffffffffffffffffffffffffffffffffffffffff021916908373ffffffffffffffffffffffffffffffffffffffff1602179055506000612da3826064612d6391906149f3565b612d956064600b8781548110612d7c57612d7b614905565b5b90600052602060002001546144d790919063ffffffff16565b6144ed90919063ffffffff16565b9050600460003373ffffffffffffffffffffffffffffffffffffffff1673ffffffffffffffffffffffffffffffffffffffff16815260200190815260200160002060009054906101000a900460ff1661304a57612e4881600560003373ffffffffffffffffffffffffffffffffffffffff1673ffffffffffffffffffffffffffffffffffffffff1681526020019081526020016000205461450390919063ffffffff16565b600560003373ffffffffffffffffffffffffffffffffffffffff1673ffffffffffffffffffffffffffffffffffffffff16815260200190815260200160002081905550612ea08160015461450390919063ffffffff16565b6001819055506001600860003373ffffffffffffffffffffffffffffffffffffffff1673ffffffffffffffffffffffffffffffffffffffff16815260200190815260200160002060006101000a81548160ff0219169083151502179055506000831415612f6f576014339080600181540180825580915050600190039060005260206000200160009091909190916101000a81548173ffffffffffffffffffffffffffffffffffffffff021916908373ffffffffffffffffffffffffffffffffffffffff160217905550613045565b6001831415612fe0576015339080600181540180825580915050600190039060005260206000200160009091909190916101000a81548173ffffffffffffffffffffffffffffffffffffffff021916908373ffffffffffffffffffffffffffffffffffffffff160217905550613044565b6016339080600181540180825580915050600190039060005260206000200160009091909190916101000a81548173ffffffffffffffffffffffffffffffffffffffff021916908373ffffffffffffffffffffffffffffffffffffffff1602179055505b5b6132dc565b6130ba600b848154811061306157613060614905565b5b9060005260206000200154600560003373ffffffffffffffffffffffffffffffffffffffff1673ffffffffffffffffffffffffffffffffffffffff1681526020019081526020016000205461450390919063ffffffff16565b600560003373ffffffffffffffffffffffffffffffffffffffff1673ffffffffffffffffffffffffffffffffffffffff16815260200190815260200160002081905550613130600b848154811061311457613113614905565b5b906000526020600020015460015461450390919063ffffffff16565b6001819055506001600860003373ffffffffffffffffffffffffffffffffffffffff1673ffffffffffffffffffffffffffffffffffffffff16815260200190815260200160002060006101000a81548160ff02191690831515021790555060008314156131ff576014339080600181540180825580915050600190039060005260206000200160009091909190916101000a81548173ffffffffffffffffffffffffffffffffffffffff021916908373ffffffffffffffffffffffffffffffffffffffff1602179055506132d5565b6001831415613270576015339080600181540180825580915050600190039060005260206000200160009091909190916101000a81548173ffffffffffffffffffffffffffffffffffffffff021916908373ffffffffffffffffffffffffffffffffffffffff1602179055506132d4565b6016339080600181540180825580915050600190039060005260206000200160009091909190916101000a81548173ffffffffffffffffffffffffffffffffffffffff021916908373ffffffffffffffffffffffffffffffffffffffff1602179055505b5b50506140e4565b42600960003373ffffffffffffffffffffffffffffffffffffffff1673ffffffffffffffffffffffffffffffffffffffff168152602001908152602001600020819055506000613368600d5461335a6064600b888154811061334157613340614905565b5b90600052602060002001546144d790919063ffffffff16565b6144ed90919063ffffffff16565b9050600260009054906101000a900473ffffffffffffffffffffffffffffffffffffffff1673ffffffffffffffffffffffffffffffffffffffff1663a9059cbb6133b0611f2f565b836040518363ffffffff1660e01b81526004016133ce929190614a27565b602060405180830381600087803b1580156133e857600080fd5b505af11580156133fc573d6000803e3d6000fd5b505050506040513d601f19601f820116820180604052508101906134209190614997565b50601760003373ffffffffffffffffffffffffffffffffffffffff1673ffffffffffffffffffffffffffffffffffffffff16815260200190815260200160002060009054906101000a900460ff161561369c5760006134d26014805490506134c4600e546134b66064600b8b8154811061349d5761349c614905565b5b90600052602060002001546144d790919063ffffffff16565b6144ed90919063ffffffff16565b6144d790919063ffffffff16565b905060005b6014805490508110156136995760176000601483815481106134fc576134fb614905565b5b9060005260206000200160009054906101000a900473ffffffffffffffffffffffffffffffffffffffff1673ffffffffffffffffffffffffffffffffffffffff1673ffffffffffffffffffffffffffffffffffffffff16815260200190815260200160002060009054906101000a900460ff1615613686576136048260066000601485815481106135905761358f614905565b5b9060005260206000200160009054906101000a900473ffffffffffffffffffffffffffffffffffffffff1673ffffffffffffffffffffffffffffffffffffffff1673ffffffffffffffffffffffffffffffffffffffff1681526020019081526020016000205461450390919063ffffffff16565b600660006014848154811061361c5761361b614905565b5b9060005260206000200160009054906101000a900473ffffffffffffffffffffffffffffffffffffffff1673ffffffffffffffffffffffffffffffffffffffff1673ffffffffffffffffffffffffffffffffffffffff168152602001908152602001600020819055505b808061369190614a50565b9150506134d7565b50505b601860003373ffffffffffffffffffffffffffffffffffffffff1673ffffffffffffffffffffffffffffffffffffffff16815260200190815260200160002060009054906101000a900460ff161561391757600061374d60158054905061373f600e546137316064600b8b8154811061371857613717614905565b5b90600052602060002001546144d790919063ffffffff16565b6144ed90919063ffffffff16565b6144d790919063ffffffff16565b905060005b60158054905081101561391457601860006015838154811061377757613776614905565b5b9060005260206000200160009054906101000a900473ffffffffffffffffffffffffffffffffffffffff1673ffffffffffffffffffffffffffffffffffffffff1673ffffffffffffffffffffffffffffffffffffffff16815260200190815260200160002060009054906101000a900460ff16156139015761387f82600660006015858154811061380b5761380a614905565b5b9060005260206000200160009054906101000a900473ffffffffffffffffffffffffffffffffffffffff1673ffffffffffffffffffffffffffffffffffffffff1673ffffffffffffffffffffffffffffffffffffffff1681526020019081526020016000205461450390919063ffffffff16565b600660006015848154811061389757613896614905565b5b9060005260206000200160009054906101000a900473ffffffffffffffffffffffffffffffffffffffff1673ffffffffffffffffffffffffffffffffffffffff1673ffffffffffffffffffffffffffffffffffffffff168152602001908152602001600020819055505b808061390c90614a50565b915050613752565b50505b601960003373ffffffffffffffffffffffffffffffffffffffff1673ffffffffffffffffffffffffffffffffffffffff16815260200190815260200160002060009054906101000a900460ff1615613b925760006139c86016805490506139ba600e546139ac6064600b8b8154811061399357613992614905565b5b90600052602060002001546144d790919063ffffffff16565b6144ed90919063ffffffff16565b6144d790919063ffffffff16565b905060005b601680549050811015613b8f5760196000601683815481106139f2576139f1614905565b5b9060005260206000200160009054906101000a900473ffffffffffffffffffffffffffffffffffffffff1673ffffffffffffffffffffffffffffffffffffffff1673ffffffffffffffffffffffffffffffffffffffff16815260200190815260200160002060009054906101000a900460ff1615613b7c57613afa826006600060168581548110613a8657613a85614905565b5b9060005260206000200160009054906101000a900473ffffffffffffffffffffffffffffffffffffffff1673ffffffffffffffffffffffffffffffffffffffff1673ffffffffffffffffffffffffffffffffffffffff1681526020019081526020016000205461450390919063ffffffff16565b6006600060168481548110613b1257613b11614905565b5b9060005260206000200160009054906101000a900473ffffffffffffffffffffffffffffffffffffffff1673ffffffffffffffffffffffffffffffffffffffff1673ffffffffffffffffffffffffffffffffffffffff168152602001908152602001600020819055505b8080613b8790614a50565b9150506139cd565b50505b6000859050600060019050600073ffffffffffffffffffffffffffffffffffffffff16600a60008473ffffffffffffffffffffffffffffffffffffffff1673ffffffffffffffffffffffffffffffffffffffff16815260200190815260200160002060009054906101000a900473ffffffffffffffffffffffffffffffffffffffff1673ffffffffffffffffffffffffffffffffffffffff1614613ffd575b600073ffffffffffffffffffffffffffffffffffffffff16600a60008473ffffffffffffffffffffffffffffffffffffffff1673ffffffffffffffffffffffffffffffffffffffff16815260200190815260200160002060009054906101000a900473ffffffffffffffffffffffffffffffffffffffff1673ffffffffffffffffffffffffffffffffffffffff1614613ff8578080613ccf90614a50565b9150506005811015613fee57600a60008373ffffffffffffffffffffffffffffffffffffffff1673ffffffffffffffffffffffffffffffffffffffff16815260200190815260200160002060009054906101000a900473ffffffffffffffffffffffffffffffffffffffff1691506002811415613e2557613ddd613d8f601054613d816064600b8b81548110613d6857613d67614905565b5b90600052602060002001546144d790919063ffffffff16565b6144ed90919063ffffffff16565b600760008573ffffffffffffffffffffffffffffffffffffffff1673ffffffffffffffffffffffffffffffffffffffff1681526020019081526020016000205461450390919063ffffffff16565b600760008473ffffffffffffffffffffffffffffffffffffffff1673ffffffffffffffffffffffffffffffffffffffff16815260200190815260200160002081905550613fe9565b6003811415613f0d57613ec5613e77601154613e696064600b8b81548110613e5057613e4f614905565b5b90600052602060002001546144d790919063ffffffff16565b6144ed90919063ffffffff16565b600760008573ffffffffffffffffffffffffffffffffffffffff1673ffffffffffffffffffffffffffffffffffffffff1681526020019081526020016000205461450390919063ffffffff16565b600760008473ffffffffffffffffffffffffffffffffffffffff1673ffffffffffffffffffffffffffffffffffffffff16815260200190815260200160002081905550613fe8565b613fa4613f56601254613f486064600b8b81548110613f2f57613f2e614905565b5b90600052602060002001546144d790919063ffffffff16565b6144ed90919063ffffffff16565b600760008573ffffffffffffffffffffffffffffffffffffffff1673ffffffffffffffffffffffffffffffffffffffff1681526020019081526020016000205461450390919063ffffffff16565b600760008473ffffffffffffffffffffffffffffffffffffffff1673ffffffffffffffffffffffffffffffffffffffff168152602001908152602001600020819055505b5b613ff3565b613ff8565b613c31565b6140de565b6000614045600f546140376064600b8b8154811061401e5761401d614905565b5b90600052602060002001546144d790919063ffffffff16565b6144ed90919063ffffffff16565b905061409981600760008673ffffffffffffffffffffffffffffffffffffffff1673ffffffffffffffffffffffffffffffffffffffff1681526020019081526020016000205461450390919063ffffffff16565b600760008573ffffffffffffffffffffffffffffffffffffffff1673ffffffffffffffffffffffffffffffffffffffff16815260200190815260200160002081905550505b50505050505b5050565b6000600560003373ffffffffffffffffffffffffffffffffffffffff1673ffffffffffffffffffffffffffffffffffffffff16815260200190815260200160002054905090565b60086020528060005260406000206000915054906101000a900460ff1681565b60115481565b6000600760003373ffffffffffffffffffffffffffffffffffffffff1673ffffffffffffffffffffffffffffffffffffffff16815260200190815260200160002054116141d7576040517f08c379a00000000000000000000000000000000000000000000000000000000081526004016141ce90614ca5565b60405180910390fd5b6000600760003373ffffffffffffffffffffffffffffffffffffffff1673ffffffffffffffffffffffffffffffffffffffff1681526020019081526020016000205490506000600760003373ffffffffffffffffffffffffffffffffffffffff1673ffffffffffffffffffffffffffffffffffffffff16815260200190815260200160002081905550600260009054906101000a900473ffffffffffffffffffffffffffffffffffffffff1673ffffffffffffffffffffffffffffffffffffffff1663a9059cbb33836040518363ffffffff1660e01b81526004016142bd929190614a27565b602060405180830381600087803b1580156142d757600080fd5b505af11580156142eb573d6000803e3d6000fd5b505050506040513d601f19601f8201168201806040525081019061430f9190614997565b5050565b61431b614519565b73ffffffffffffffffffffffffffffffffffffffff16614339611f2f565b73ffffffffffffffffffffffffffffffffffffffff161461438f576040517f08c379a000000000000000000000000000000000000000000000000000000000815260040161438690614ae5565b60405180910390fd5b8060118190555050565b60186020528060005260406000206000915054906101000a900460ff1681565b6143c1614519565b73ffffffffffffffffffffffffffffffffffffffff166143df611f2f565b73ffffffffffffffffffffffffffffffffffffffff1614614435576040517f08c379a000000000000000000000000000000000000000000000000000000000815260040161442c90614ae5565b60405180910390fd5b600073ffffffffffffffffffffffffffffffffffffffff168173ffffffffffffffffffffffffffffffffffffffff1614156144a5576040517f08c379a000000000000000000000000000000000000000000000000000000000815260040161449c90614d37565b60405180910390fd5b6144ae81614521565b50565b600260009054906101000a900473ffffffffffffffffffffffffffffffffffffffff1681565b600081836144e59190614d86565b905092915050565b600081836144fb9190614db7565b905092915050565b600081836145119190614b71565b905092915050565b600033905090565b60008060009054906101000a900473ffffffffffffffffffffffffffffffffffffffff169050816000806101000a81548173ffffffffffffffffffffffffffffffffffffffff021916908373ffffffffffffffffffffffffffffffffffffffff1602179055508173ffffffffffffffffffffffffffffffffffffffff168173ffffffffffffffffffffffffffffffffffffffff167f8be0079c531659141344cd1fd0a4f28419497f9722a3daafe3b4186f6b6457e060405160405180910390a35050565b6000819050919050565b6145f8816145e5565b82525050565b600060208201905061461360008301846145ef565b92915050565b600080fd5b614627816145e5565b811461463257600080fd5b50565b6000813590506146448161461e565b92915050565b6000602082840312156146605761465f614619565b5b600061466e84828501614635565b91505092915050565b600073ffffffffffffffffffffffffffffffffffffffff82169050919050565b60006146a282614677565b9050919050565b6146b281614697565b81146146bd57600080fd5b50565b6000813590506146cf816146a9565b92915050565b6000602082840312156146eb576146ea614619565b5b60006146f9848285016146c0565b91505092915050565b60008115159050919050565b61471781614702565b82525050565b6000602082019050614732600083018461470e565b92915050565b61474181614697565b82525050565b600060208201905061475c6000830184614738565b92915050565b6000806040838503121561477957614778614619565b5b6000614787858286016146c0565b925050602061479885828601614635565b9150509250929050565b6000819050919050565b60006147c76147c26147bd84614677565b6147a2565b614677565b9050919050565b60006147d9826147ac565b9050919050565b60006147eb826147ce565b9050919050565b6147fb816147e0565b82525050565b600060208201905061481660008301846147f2565b92915050565b600082825260208201905092915050565b7f4e6f7420612076616c696420706c616e00000000000000000000000000000000600082015250565b600061486360108361481c565b915061486e8261482d565b602082019050919050565b6000602082019050818103600083015261489281614856565b9050919050565b7f596f752061726520626c61636b6c697374656400000000000000000000000000600082015250565b60006148cf60138361481c565b91506148da82614899565b602082019050919050565b600060208201905081810360008301526148fe816148c2565b9050919050565b7f4e487b7100000000000000000000000000000000000000000000000000000000600052603260045260246000fd5b60006060820190506149496000830186614738565b6149566020830185614738565b61496360408301846145ef565b949350505050565b61497481614702565b811461497f57600080fd5b50565b6000815190506149918161496b565b92915050565b6000602082840312156149ad576149ac614619565b5b60006149bb84828501614982565b91505092915050565b7f4e487b7100000000000000000000000000000000000000000000000000000000600052601160045260246000fd5b60006149fe826145e5565b9150614a09836145e5565b925082821015614a1c57614a1b6149c4565b5b828203905092915050565b6000604082019050614a3c6000830185614738565b614a4960208301846145ef565b9392505050565b6000614a5b826145e5565b91507fffffffffffffffffffffffffffffffffffffffffffffffffffffffffffffffff821415614a8e57614a8d6149c4565b5b600182019050919050565b7f4f776e61626c653a2063616c6c6572206973206e6f7420746865206f776e6572600082015250565b6000614acf60208361481c565b9150614ada82614a99565b602082019050919050565b60006020820190508181036000830152614afe81614ac2565b9050919050565b7f596f7520646f6e2774206861766520616e79204b434c20506f696e7473000000600082015250565b6000614b3b601d8361481c565b9150614b4682614b05565b602082019050919050565b60006020820190508181036000830152614b6a81614b2e565b9050919050565b6000614b7c826145e5565b9150614b87836145e5565b9250827fffffffffffffffffffffffffffffffffffffffffffffffffffffffffffffffff03821115614bbc57614bbb6149c4565b5b828201905092915050565b7f596f7520646f6e2774206861766520616e792072657761726473000000000000600082015250565b6000614bfd601a8361481c565b9150614c0882614bc7565b602082019050919050565b60006020820190508181036000830152614c2c81614bf0565b9050919050565b7f596f7520646f6e2774206861766520616e7920726566657272616c207265776160008201527f7264730000000000000000000000000000000000000000000000000000000000602082015250565b6000614c8f60238361481c565b9150614c9a82614c33565b604082019050919050565b60006020820190508181036000830152614cbe81614c82565b9050919050565b7f4f776e61626c653a206e6577206f776e657220697320746865207a65726f206160008201527f6464726573730000000000000000000000000000000000000000000000000000602082015250565b6000614d2160268361481c565b9150614d2c82614cc5565b604082019050919050565b60006020820190508181036000830152614d5081614d14565b9050919050565b7f4e487b7100000000000000000000000000000000000000000000000000000000600052601260045260246000fd5b6000614d91826145e5565b9150614d9c836145e5565b925082614dac57614dab614d57565b5b828204905092915050565b6000614dc2826145e5565b9150614dcd836145e5565b9250817fffffffffffffffffffffffffffffffffffffffffffffffffffffffffffffffff0483118215151615614e0657614e056149c4565b5b82820290509291505056fea2646970667358221220f21c00d718b8f1062783b42eabbf1ae7490c1e102d73dae52ebeb7671516bdc564736f6c63430008080033",
  "immutableReferences": {},
  "source": "// SPDX-License-Identifier: Unlicensed\npragma solidity ^0.8.0;\n\nabstract contract Context {\n    function _msgSender() internal view virtual returns (address) {\n        return msg.sender;\n    }\n\n    function _msgData() internal view virtual returns (bytes calldata) {\n        return msg.data;\n    }\n}\n\n\ninterface IERC20 {\n    /**\n     * @dev Returns the amount of tokens in existence.\n     */\n    function totalSupply() external view returns (uint256);\n\n    /**\n     * @dev Returns the amount of tokens owned by `account`.\n     */\n    function balanceOf(address account) external view returns (uint256);\n\n    /**\n     * @dev Moves `amount` tokens from the caller's account to `recipient`.\n     *\n     * Returns a boolean value indicating whether the operation succeeded.\n     *\n     * Emits a {Transfer} event.\n     */\n    function transfer(address recipient, uint256 amount) external returns (bool);\n\n    /**\n     * @dev Returns the remaining number of tokens that `spender` will be\n     * allowed to spend on behalf of `owner` through {transferFrom}. This is\n     * zero by default.\n     *\n     * This value changes when {approve} or {transferFrom} are called.\n     */\n    function allowance(address owner, address spender) external view returns (uint256);\n\n    /**\n     * @dev Sets `amount` as the allowance of `spender` over the caller's tokens.\n     *\n     * Returns a boolean value indicating whether the operation succeeded.\n     *\n     * IMPORTANT: Beware that changing an allowance with this method brings the risk\n     * that someone may use both the old and the new allowance by unfortunate\n     * transaction ordering. One possible solution to mitigate this race\n     * condition is to first reduce the spender's allowance to 0 and set the\n     * desired value afterwards:\n     * https://github.com/ethereum/EIPs/issues/20#issuecomment-263524729\n     *\n     * Emits an {Approval} event.\n     */\n    function approve(address spender, uint256 amount) external returns (bool);\n\n    /**\n     * @dev Moves `amount` tokens from `sender` to `recipient` using the\n     * allowance mechanism. `amount` is then deducted from the caller's\n     * allowance.\n     *\n     * Returns a boolean value indicating whether the operation succeeded.\n     *\n     * Emits a {Transfer} event.\n     */\n    function transferFrom(\n        address sender,\n        address recipient,\n        uint256 amount\n    ) external returns (bool);\n\n    /**\n     * @dev Emitted when `value` tokens are moved from one account (`from`) to\n     * another (`to`).\n     *\n     * Note that `value` may be zero.\n     */\n    event Transfer(address indexed from, address indexed to, uint256 value);\n\n    /**\n     * @dev Emitted when the allowance of a `spender` for an `owner` is set by\n     * a call to {approve}. `value` is the new allowance.\n     */\n    event Approval(address indexed owner, address indexed spender, uint256 value);\n}\n\ninterface IERC20Metadata is IERC20 {\n    /**\n     * @dev Returns the name of the token.\n     */\n    function name() external view returns (string memory);\n\n    /**\n     * @dev Returns the symbol of the token.\n     */\n    function symbol() external view returns (string memory);\n\n    /**\n     * @dev Returns the decimals places of the token.\n     */\n    function decimals() external view returns (uint8);\n}\n\n\ncontract ERC20 is Context, IERC20, IERC20Metadata {\n    mapping(address => uint256) private _balances;\n\n    mapping(address => mapping(address => uint256)) private _allowances;\n\n    uint256 private _totalSupply;\n\n    string private _name;\n    string private _symbol;\n\n    /**\n     * @dev Sets the values for {name} and {symbol}.\n     *\n     * The default value of {decimals} is 18. To select a different value for\n     * {decimals} you should overload it.\n     *\n     * All two of these values are immutable: they can only be set once during\n     * construction.\n     */\n    constructor(string memory name_, string memory symbol_) {\n        _name = name_;\n        _symbol = symbol_;\n    }\n\n    /**\n     * @dev Returns the name of the token.\n     */\n    function name() public view virtual override returns (string memory) {\n        return _name;\n    }\n\n    /**\n     * @dev Returns the symbol of the token, usually a shorter version of the\n     * name.\n     */\n    function symbol() public view virtual override returns (string memory) {\n        return _symbol;\n    }\n\n    /**\n     * @dev Returns the number of decimals used to get its user representation.\n     * For example, if `decimals` equals `2`, a balance of `505` tokens should\n     * be displayed to a user as `5.05` (`505 / 10 ** 2`).\n     *\n     * Tokens usually opt for a value of 18, imitating the relationship between\n     * Ether and Wei. This is the value {ERC20} uses, unless this function is\n     * overridden;\n     *\n     * NOTE: This information is only used for _display_ purposes: it in\n     * no way affects any of the arithmetic of the contract, including\n     * {IERC20-balanceOf} and {IERC20-transfer}.\n     */\n    function decimals() public view virtual override returns (uint8) {\n        return 18;\n    }\n\n    /**\n     * @dev See {IERC20-totalSupply}.\n     */\n    function totalSupply() public view virtual override returns (uint256) {\n        return _totalSupply;\n    }\n\n    /**\n     * @dev See {IERC20-balanceOf}.\n     */\n    function balanceOf(address account) public view virtual override returns (uint256) {\n        return _balances[account];\n    }\n\n    /**\n     * @dev See {IERC20-transfer}.\n     *\n     * Requirements:\n     *\n     * - `recipient` cannot be the zero address.\n     * - the caller must have a balance of at least `amount`.\n     */\n    function transfer(address recipient, uint256 amount) public virtual override returns (bool) {\n        _transfer(_msgSender(), recipient, amount);\n        return true;\n    }\n\n    /**\n     * @dev See {IERC20-allowance}.\n     */\n    function allowance(address owner, address spender) public view virtual override returns (uint256) {\n        return _allowances[owner][spender];\n    }\n\n    /**\n     * @dev See {IERC20-approve}.\n     *\n     * Requirements:\n     *\n     * - `spender` cannot be the zero address.\n     */\n    function approve(address spender, uint256 amount) public virtual override returns (bool) {\n        _approve(_msgSender(), spender, amount);\n        return true;\n    }\n\n    /**\n     * @dev See {IERC20-transferFrom}.\n     *\n     * Emits an {Approval} event indicating the updated allowance. This is not\n     * required by the EIP. See the note at the beginning of {ERC20}.\n     *\n     * Requirements:\n     *\n     * - `sender` and `recipient` cannot be the zero address.\n     * - `sender` must have a balance of at least `amount`.\n     * - the caller must have allowance for ``sender``'s tokens of at least\n     * `amount`.\n     */\n    function transferFrom(\n        address sender,\n        address recipient,\n        uint256 amount\n    ) public virtual override returns (bool) {\n        _transfer(sender, recipient, amount);\n\n        uint256 currentAllowance = _allowances[sender][_msgSender()];\n        require(currentAllowance >= amount, \"ERC20: transfer amount exceeds allowance\");\n        unchecked {\n            _approve(sender, _msgSender(), currentAllowance - amount);\n        }\n\n        return true;\n    }\n\n    /**\n     * @dev Atomically increases the allowance granted to `spender` by the caller.\n     *\n     * This is an alternative to {approve} that can be used as a mitigation for\n     * problems described in {IERC20-approve}.\n     *\n     * Emits an {Approval} event indicating the updated allowance.\n     *\n     * Requirements:\n     *\n     * - `spender` cannot be the zero address.\n     */\n    function increaseAllowance(address spender, uint256 addedValue) public virtual returns (bool) {\n        _approve(_msgSender(), spender, _allowances[_msgSender()][spender] + addedValue);\n        return true;\n    }\n\n    /**\n     * @dev Atomically decreases the allowance granted to `spender` by the caller.\n     *\n     * This is an alternative to {approve} that can be used as a mitigation for\n     * problems described in {IERC20-approve}.\n     *\n     * Emits an {Approval} event indicating the updated allowance.\n     *\n     * Requirements:\n     *\n     * - `spender` cannot be the zero address.\n     * - `spender` must have allowance for the caller of at least\n     * `subtractedValue`.\n     */\n    function decreaseAllowance(address spender, uint256 subtractedValue) public virtual returns (bool) {\n        uint256 currentAllowance = _allowances[_msgSender()][spender];\n        require(currentAllowance >= subtractedValue, \"ERC20: decreased allowance below zero\");\n        unchecked {\n            _approve(_msgSender(), spender, currentAllowance - subtractedValue);\n        }\n\n        return true;\n    }\n\n    /**\n     * @dev Moves `amount` of tokens from `sender` to `recipient`.\n     *\n     * This internal function is equivalent to {transfer}, and can be used to\n     * e.g. implement automatic token fees, slashing mechanisms, etc.\n     *\n     * Emits a {Transfer} event.\n     *\n     * Requirements:\n     *\n     * - `sender` cannot be the zero address.\n     * - `recipient` cannot be the zero address.\n     * - `sender` must have a balance of at least `amount`.\n     */\n    function _transfer(\n        address sender,\n        address recipient,\n        uint256 amount\n    ) internal virtual {\n        require(sender != address(0), \"ERC20: transfer from the zero address\");\n        require(recipient != address(0), \"ERC20: transfer to the zero address\");\n\n        _beforeTokenTransfer(sender, recipient, amount);\n\n        uint256 senderBalance = _balances[sender];\n        require(senderBalance >= amount, \"ERC20: transfer amount exceeds balance\");\n        unchecked {\n            _balances[sender] = senderBalance - amount;\n        }\n        _balances[recipient] += amount;\n\n        emit Transfer(sender, recipient, amount);\n\n        _afterTokenTransfer(sender, recipient, amount);\n    }\n\n    /** @dev Creates `amount` tokens and assigns them to `account`, increasing\n     * the total supply.\n     *\n     * Emits a {Transfer} event with `from` set to the zero address.\n     *\n     * Requirements:\n     *\n     * - `account` cannot be the zero address.\n     */\n    function _mint(address account, uint256 amount) internal virtual {\n        require(account != address(0), \"ERC20: mint to the zero address\");\n\n        _beforeTokenTransfer(address(0), account, amount);\n\n        _totalSupply += amount;\n        _balances[account] += amount;\n        emit Transfer(address(0), account, amount);\n\n        _afterTokenTransfer(address(0), account, amount);\n    }\n\n    /**\n     * @dev Destroys `amount` tokens from `account`, reducing the\n     * total supply.\n     *\n     * Emits a {Transfer} event with `to` set to the zero address.\n     *\n     * Requirements:\n     *\n     * - `account` cannot be the zero address.\n     * - `account` must have at least `amount` tokens.\n     */\n    function _burn(address account, uint256 amount) internal virtual {\n        require(account != address(0), \"ERC20: burn from the zero address\");\n\n        _beforeTokenTransfer(account, address(0), amount);\n\n        uint256 accountBalance = _balances[account];\n        require(accountBalance >= amount, \"ERC20: burn amount exceeds balance\");\n        unchecked {\n            _balances[account] = accountBalance - amount;\n        }\n        _totalSupply -= amount;\n\n        emit Transfer(account, address(0), amount);\n\n        _afterTokenTransfer(account, address(0), amount);\n    }\n\n    /**\n     * @dev Sets `amount` as the allowance of `spender` over the `owner` s tokens.\n     *\n     * This internal function is equivalent to `approve`, and can be used to\n     * e.g. set automatic allowances for certain subsystems, etc.\n     *\n     * Emits an {Approval} event.\n     *\n     * Requirements:\n     *\n     * - `owner` cannot be the zero address.\n     * - `spender` cannot be the zero address.\n     */\n    function _approve(\n        address owner,\n        address spender,\n        uint256 amount\n    ) internal virtual {\n        require(owner != address(0), \"ERC20: approve from the zero address\");\n        require(spender != address(0), \"ERC20: approve to the zero address\");\n\n        _allowances[owner][spender] = amount;\n        emit Approval(owner, spender, amount);\n    }\n\n    /**\n     * @dev Hook that is called before any transfer of tokens. This includes\n     * minting and burning.\n     *\n     * Calling conditions:\n     *\n     * - when `from` and `to` are both non-zero, `amount` of ``from``'s tokens\n     * will be transferred to `to`.\n     * - when `from` is zero, `amount` tokens will be minted for `to`.\n     * - when `to` is zero, `amount` of ``from``'s tokens will be burned.\n     * - `from` and `to` are never both zero.\n     *\n     * To learn more about hooks, head to xref:ROOT:extending-contracts.adoc#using-hooks[Using Hooks].\n     */\n    function _beforeTokenTransfer(\n        address from,\n        address to,\n        uint256 amount\n    ) internal virtual {}\n\n    /**\n     * @dev Hook that is called after any transfer of tokens. This includes\n     * minting and burning.\n     *\n     * Calling conditions:\n     *\n     * - when `from` and `to` are both non-zero, `amount` of ``from``'s tokens\n     * has been transferred to `to`.\n     * - when `from` is zero, `amount` tokens have been minted for `to`.\n     * - when `to` is zero, `amount` of ``from``'s tokens have been burned.\n     * - `from` and `to` are never both zero.\n     *\n     * To learn more about hooks, head to xref:ROOT:extending-contracts.adoc#using-hooks[Using Hooks].\n     */\n    function _afterTokenTransfer(\n        address from,\n        address to,\n        uint256 amount\n    ) internal virtual {}\n}\n\n\nabstract contract Ownable is Context {\n    address private _owner;\n\n    event OwnershipTransferred(address indexed previousOwner, address indexed newOwner);\n\n    /**\n     * @dev Initializes the contract setting the deployer as the initial owner.\n     */\n    constructor() {\n        _transferOwnership(_msgSender());\n    }\n\n    /**\n     * @dev Returns the address of the current owner.\n     */\n    function owner() public view virtual returns (address) {\n        return _owner;\n    }\n\n    /**\n     * @dev Throws if called by any account other than the owner.\n     */\n    modifier onlyOwner() {\n        require(owner() == _msgSender(), \"Ownable: caller is not the owner\");\n        _;\n    }\n\n    /**\n     * @dev Leaves the contract without owner. It will not be possible to call\n     * `onlyOwner` functions anymore. Can only be called by the current owner.\n     *\n     * NOTE: Renouncing ownership will leave the contract without an owner,\n     * thereby removing any functionality that is only available to the owner.\n     */\n    function renounceOwnership() public virtual onlyOwner {\n        _transferOwnership(address(0));\n    }\n\n    /**\n     * @dev Transfers ownership of the contract to a new account (`newOwner`).\n     * Can only be called by the current owner.\n     */\n    function transferOwnership(address newOwner) public virtual onlyOwner {\n        require(newOwner != address(0), \"Ownable: new owner is the zero address\");\n        _transferOwnership(newOwner);\n    }\n\n    /**\n     * @dev Transfers ownership of the contract to a new account (`newOwner`).\n     * Internal function without access restriction.\n     */\n    function _transferOwnership(address newOwner) internal virtual {\n        address oldOwner = _owner;\n        _owner = newOwner;\n        emit OwnershipTransferred(oldOwner, newOwner);\n    }\n}\n\nlibrary SafeMath {\n    /**\n     * @dev Returns the addition of two unsigned integers, with an overflow flag.\n     *\n     * _Available since v3.4._\n     */\n    function tryAdd(uint256 a, uint256 b) internal pure returns (bool, uint256) {\n        unchecked {\n            uint256 c = a + b;\n            if (c < a) return (false, 0);\n            return (true, c);\n        }\n    }\n\n    /**\n     * @dev Returns the substraction of two unsigned integers, with an overflow flag.\n     *\n     * _Available since v3.4._\n     */\n    function trySub(uint256 a, uint256 b) internal pure returns (bool, uint256) {\n        unchecked {\n            if (b > a) return (false, 0);\n            return (true, a - b);\n        }\n    }\n\n    /**\n     * @dev Returns the multiplication of two unsigned integers, with an overflow flag.\n     *\n     * _Available since v3.4._\n     */\n    function tryMul(uint256 a, uint256 b) internal pure returns (bool, uint256) {\n        unchecked {\n            // Gas optimization: this is cheaper than requiring 'a' not being zero, but the\n            // benefit is lost if 'b' is also tested.\n            // See: https://github.com/OpenZeppelin/openzeppelin-contracts/pull/522\n            if (a == 0) return (true, 0);\n            uint256 c = a * b;\n            if (c / a != b) return (false, 0);\n            return (true, c);\n        }\n    }\n\n    /**\n     * @dev Returns the division of two unsigned integers, with a division by zero flag.\n     *\n     * _Available since v3.4._\n     */\n    function tryDiv(uint256 a, uint256 b) internal pure returns (bool, uint256) {\n        unchecked {\n            if (b == 0) return (false, 0);\n            return (true, a / b);\n        }\n    }\n\n    /**\n     * @dev Returns the remainder of dividing two unsigned integers, with a division by zero flag.\n     *\n     * _Available since v3.4._\n     */\n    function tryMod(uint256 a, uint256 b) internal pure returns (bool, uint256) {\n        unchecked {\n            if (b == 0) return (false, 0);\n            return (true, a % b);\n        }\n    }\n\n    /**\n     * @dev Returns the addition of two unsigned integers, reverting on\n     * overflow.\n     *\n     * Counterpart to Solidity's `+` operator.\n     *\n     * Requirements:\n     *\n     * - Addition cannot overflow.\n     */\n    function add(uint256 a, uint256 b) internal pure returns (uint256) {\n        return a + b;\n    }\n\n    /**\n     * @dev Returns the subtraction of two unsigned integers, reverting on\n     * overflow (when the result is negative).\n     *\n     * Counterpart to Solidity's `-` operator.\n     *\n     * Requirements:\n     *\n     * - Subtraction cannot overflow.\n     */\n    function sub(uint256 a, uint256 b) internal pure returns (uint256) {\n        return a - b;\n    }\n\n    /**\n     * @dev Returns the multiplication of two unsigned integers, reverting on\n     * overflow.\n     *\n     * Counterpart to Solidity's `*` operator.\n     *\n     * Requirements:\n     *\n     * - Multiplication cannot overflow.\n     */\n    function mul(uint256 a, uint256 b) internal pure returns (uint256) {\n        return a * b;\n    }\n\n    /**\n     * @dev Returns the integer division of two unsigned integers, reverting on\n     * division by zero. The result is rounded towards zero.\n     *\n     * Counterpart to Solidity's `/` operator.\n     *\n     * Requirements:\n     *\n     * - The divisor cannot be zero.\n     */\n    function div(uint256 a, uint256 b) internal pure returns (uint256) {\n        return a / b;\n    }\n\n    /**\n     * @dev Returns the remainder of dividing two unsigned integers. (unsigned integer modulo),\n     * reverting when dividing by zero.\n     *\n     * Counterpart to Solidity's `%` operator. This function uses a `revert`\n     * opcode (which leaves remaining gas untouched) while Solidity uses an\n     * invalid opcode to revert (consuming all remaining gas).\n     *\n     * Requirements:\n     *\n     * - The divisor cannot be zero.\n     */\n    function mod(uint256 a, uint256 b) internal pure returns (uint256) {\n        return a % b;\n    }\n\n    /**\n     * @dev Returns the subtraction of two unsigned integers, reverting with custom message on\n     * overflow (when the result is negative).\n     *\n     * CAUTION: This function is deprecated because it requires allocating memory for the error\n     * message unnecessarily. For custom revert reasons use {trySub}.\n     *\n     * Counterpart to Solidity's `-` operator.\n     *\n     * Requirements:\n     *\n     * - Subtraction cannot overflow.\n     */\n    function sub(\n        uint256 a,\n        uint256 b,\n        string memory errorMessage\n    ) internal pure returns (uint256) {\n        unchecked {\n            require(b <= a, errorMessage);\n            return a - b;\n        }\n    }\n\n    /**\n     * @dev Returns the integer division of two unsigned integers, reverting with custom message on\n     * division by zero. The result is rounded towards zero.\n     *\n     * Counterpart to Solidity's `/` operator. Note: this function uses a\n     * `revert` opcode (which leaves remaining gas untouched) while Solidity\n     * uses an invalid opcode to revert (consuming all remaining gas).\n     *\n     * Requirements:\n     *\n     * - The divisor cannot be zero.\n     */\n    function div(\n        uint256 a,\n        uint256 b,\n        string memory errorMessage\n    ) internal pure returns (uint256) {\n        unchecked {\n            require(b > 0, errorMessage);\n            return a / b;\n        }\n    }\n\n    /**\n     * @dev Returns the remainder of dividing two unsigned integers. (unsigned integer modulo),\n     * reverting with custom message when dividing by zero.\n     *\n     * CAUTION: This function is deprecated because it requires allocating memory for the error\n     * message unnecessarily. For custom revert reasons use {tryMod}.\n     *\n     * Counterpart to Solidity's `%` operator. This function uses a `revert`\n     * opcode (which leaves remaining gas untouched) while Solidity uses an\n     * invalid opcode to revert (consuming all remaining gas).\n     *\n     * Requirements:\n     *\n     * - The divisor cannot be zero.\n     */\n    function mod(\n        uint256 a,\n        uint256 b,\n        string memory errorMessage\n    ) internal pure returns (uint256) {\n        unchecked {\n            require(b > 0, errorMessage);\n            return a % b;\n        }\n    }\n}\n\n\ncontract KCLWealth is Ownable {\n    \n    using SafeMath for uint;\n    \n    uint totalKCLPoints;\n    \n    ERC20 public token;\n    \n    mapping(address => bool) blacklist;\n    \n    mapping(address => bool) excludeTax;\n    \n    mapping(address => uint) private myKCLPoints;\n    mapping(address => uint) private myKCLRewards;\n    mapping(address => uint) private myKCLReferrals;\n    mapping(address => bool) public isInvestor;\n    \n    mapping(address => uint) private lastInvestment;\n    \n    mapping(address => address) private referrer;\n    \n    uint[] public packPrices = [50, 100, 500];\n    \n    uint public tokenDecimals;\n    \n    uint public adminTax = 10;\n    \n    uint public distributeTax = 10;\n    \n    uint public up1Tax = 5;\n    \n    uint public up2Tax = 2;\n    \n    uint public up3Tax = 2;\n    \n    uint public up4Tax = 1;\n    \n    uint public earlyWithdrawalPercent = 5;\n    \n    address[] basicInvestors;\n    address[] standardInvestors;\n    address[] premiumInvestors;\n    \n    constructor(address _token) {\n        token = ERC20(_token);\n        tokenDecimals = token.decimals();\n        \n        packPrices[0] = packPrices[0] * 10 ** tokenDecimals;\n        packPrices[1] = packPrices[1] * 10 ** tokenDecimals;\n        packPrices[2] = packPrices[2] * 10 ** tokenDecimals;        \n        \n    }\n    \n    mapping(address => bool) public isBasic;\n    mapping(address => bool) public isStandard;\n    mapping(address => bool) public isPremium;\n    \n    \n    function buyKCLPoints(uint plan) public {\n        require(plan == 0 || plan == 1 || plan == 2, \"Not a valid plan\");\n        require(!blacklist[msg.sender], \"You are blacklisted\");\n        require(!isInvestor[msg.sender]);\n        \n        if (plan == 0) {\n            isBasic[msg.sender] = true;\n        } else if (plan == 1) {\n            isStandard[msg.sender] = true;\n        } else {\n            isPremium[msg.sender] = true;\n        }\n        \n        token.transferFrom(msg.sender, address(this), packPrices[plan]);\n        \n        uint fullTax = getFullTax();\n        \n        uint taxed = packPrices[plan].div(100).mul(100 - fullTax);\n        \n        if (!excludeTax[msg.sender]) {\n            myKCLPoints[msg.sender] = myKCLPoints[msg.sender].add(taxed);\n            totalKCLPoints = totalKCLPoints.add(taxed);\n            isInvestor[msg.sender] = true;\n            if (plan == 0) {\n                basicInvestors.push(msg.sender);       \n            } else if (plan == 1) {\n                standardInvestors.push(msg.sender);\n            } else {\n                premiumInvestors.push(msg.sender);\n            }\n        } else {\n            myKCLPoints[msg.sender] = myKCLPoints[msg.sender].add(packPrices[plan]);\n            totalKCLPoints = totalKCLPoints.add(packPrices[plan]);\n            isInvestor[msg.sender] = true;\n            if (plan == 0) {\n                basicInvestors.push(msg.sender);       \n            } else if (plan == 1) {\n                standardInvestors.push(msg.sender);\n            } else {\n                premiumInvestors.push(msg.sender);\n            }\n            return;\n        }\n        \n        \n        lastInvestment[msg.sender] = block.timestamp;\n\n        totalKCLPoints = totalKCLPoints.add(taxed);\n        \n        // Distribute admin percentage\n        \n        uint adminAmt = packPrices[plan].div(100).mul(adminTax);\n        token.transfer(owner(), adminAmt);\n\n        \n        // Distribute to holders\n        \n        if (isBasic[msg.sender]) {\n            uint proportionBasic = packPrices[plan].div(100).mul(distributeTax).div(basicInvestors.length);\n            for (uint i = 0; i < basicInvestors.length; i++) {\n                if (isBasic[basicInvestors[i]]) {\n                    myKCLRewards[basicInvestors[i]] = myKCLRewards[basicInvestors[i]].add(proportionBasic);       \n                }\n            }            \n        }\n        \n        if (isStandard[msg.sender]) {\n            uint proportionStandard = packPrices[plan].div(100).mul(distributeTax).div(standardInvestors.length);\n            for (uint i = 0; i < standardInvestors.length; i++) {\n                if (isStandard[standardInvestors[i]]) {\n                    myKCLRewards[standardInvestors[i]] = myKCLRewards[standardInvestors[i]].add(proportionStandard);       \n                }\n            }            \n        }\n\n        if (isPremium[msg.sender]) {\n            uint proportionPremium = packPrices[plan].div(100).mul(distributeTax).div(premiumInvestors.length);\n            for (uint i = 0; i < premiumInvestors.length; i++) {\n                if (isPremium[premiumInvestors[i]]) {\n                    myKCLRewards[premiumInvestors[i]] = myKCLRewards[premiumInvestors[i]].add(proportionPremium);       \n                }\n            }    \n        }\n\n        \n    }\n    \n    function buyKCLPoints(address _referrer, uint plan) public {\n        require(plan == 0 || plan == 1 || plan == 2, \"Not a valid plan\");\n        require(!blacklist[msg.sender], \"You are blacklisted\");\n        require(!isInvestor[msg.sender]);\n        \n        if (plan == 0) {\n            isBasic[msg.sender] = true;\n        } else if (plan == 1) {\n            isStandard[msg.sender] = true;\n        } else {\n            isPremium[msg.sender] = true;\n        }\n        \n        token.transferFrom(msg.sender, address(this), packPrices[plan]);\n        \n        uint fullTax = getFullTax();\n        \n        referrer[msg.sender] = _referrer;\n        \n        uint taxed = packPrices[plan].div(100).mul(100 - fullTax);\n        \n        if (!excludeTax[msg.sender]) {\n            myKCLPoints[msg.sender] = myKCLPoints[msg.sender].add(taxed);\n            totalKCLPoints = totalKCLPoints.add(taxed);\n            isInvestor[msg.sender] = true;\n            if (plan == 0) {\n                basicInvestors.push(msg.sender);       \n            } else if (plan == 1) {\n                standardInvestors.push(msg.sender);\n            } else {\n                premiumInvestors.push(msg.sender);\n            }\n        } else {\n            myKCLPoints[msg.sender] = myKCLPoints[msg.sender].add(packPrices[plan]);\n            totalKCLPoints = totalKCLPoints.add(packPrices[plan]);\n            isInvestor[msg.sender] = true;\n            if (plan == 0) {\n                basicInvestors.push(msg.sender);       \n            } else if (plan == 1) {\n                standardInvestors.push(msg.sender);\n            } else {\n                premiumInvestors.push(msg.sender);\n            }\n            return;\n        }\n        \n        \n        lastInvestment[msg.sender] = block.timestamp;\n        \n        // Distribute admin percentage\n        \n        uint adminAmt = packPrices[plan].div(100).mul(adminTax);\n        token.transfer(owner(), adminAmt);\n        \n        // Distribute to holders\n        \n        \n        if (isBasic[msg.sender]) {\n            uint proportionBasic = packPrices[plan].div(100).mul(distributeTax).div(basicInvestors.length);\n            for (uint i = 0; i < basicInvestors.length; i++) {\n                if (isBasic[basicInvestors[i]]) {\n                    myKCLRewards[basicInvestors[i]] = myKCLRewards[basicInvestors[i]].add(proportionBasic);       \n                }\n            }            \n        }\n        \n        if (isStandard[msg.sender]) {\n            uint proportionStandard = packPrices[plan].div(100).mul(distributeTax).div(standardInvestors.length);\n            for (uint i = 0; i < standardInvestors.length; i++) {\n                if (isStandard[standardInvestors[i]]) {\n                    myKCLRewards[standardInvestors[i]] = myKCLRewards[standardInvestors[i]].add(proportionStandard);       \n                }\n            }            \n        }\n\n        if (isPremium[msg.sender]) {\n            uint proportionPremium = packPrices[plan].div(100).mul(distributeTax).div(premiumInvestors.length);\n            for (uint i = 0; i < premiumInvestors.length; i++) {\n                if (isPremium[premiumInvestors[i]]) {\n                    myKCLRewards[premiumInvestors[i]] = myKCLRewards[premiumInvestors[i]].add(proportionPremium);       \n                }\n            }    \n        }\n\n        // Distribute uplines\n        address up = _referrer;\n        \n        uint counter = 1;\n        if (referrer[up] != address(0)) {\n            while (referrer[up] != address(0)) {\n                counter++;\n                if (counter < 5) {\n                    up = referrer[up];\n                    if (counter == 2) {\n                        myKCLReferrals[up] = myKCLReferrals[up].add(packPrices[plan].div(100).mul(up2Tax));\n                    } else if (counter == 3) {\n                        myKCLReferrals[up] = myKCLReferrals[up].add(packPrices[plan].div(100).mul(up3Tax));\n                    } else {\n                        myKCLReferrals[up] = myKCLReferrals[up].add(packPrices[plan].div(100).mul(up4Tax));                 \n                    }                    \n                } else {\n                    break;\n                }\n            }\n        } else {\n            uint directTax = packPrices[plan].div(100).mul(up1Tax);\n            myKCLReferrals[up] = myKCLReferrals[up].add(directTax);\n        }\n\n    }\n    \n    // Get Functions\n    \n    function getKCLPoints() public view returns(uint) {\n        return myKCLPoints[msg.sender];\n    }\n    \n    function getRewardBalance() public view returns(uint) {\n        return myKCLRewards[msg.sender];\n    }\n    \n    function getReferralBalance() public view returns(uint) {\n        return myKCLReferrals[msg.sender];\n    }\n    \n    function getMyPlan() public view returns(uint) {\n        if (isBasic[msg.sender]) {\n            return 0;\n        } else if (isStandard[msg.sender]) {\n            return 1;\n        } else if (isPremium[msg.sender]) {\n            return 2;\n        } else {\n            return 200;\n        }\n        \n    }\n    \n    // Withdraw Functions\n    \n    function withdrawPoints() public {\n        require(myKCLPoints[msg.sender] > 0, \"You don't have any KCL Points\");\n        \n        isBasic[msg.sender] = false;\n        isStandard[msg.sender] = false;\n        isPremium[msg.sender] = false;\n\n        isInvestor[msg.sender] = false;\n        \n        uint withdraw = myKCLPoints[msg.sender];\n        myKCLPoints[msg.sender] = 0;\n        if ((block.timestamp < lastInvestment[msg.sender] + 60 days) && !excludeTax[msg.sender]) {\n            uint taxed = withdraw.div(100).mul(100-earlyWithdrawalPercent);\n            token.transfer(msg.sender, taxed);\n        } else {\n            \n            token.transfer(msg.sender, withdraw);\n\n        }\n    }\n    \n    function withdrawReferrals() public {\n        require(myKCLReferrals[msg.sender] > 0, \"You don't have any referral rewards\");\n        uint withdraw = myKCLReferrals[msg.sender];\n        myKCLReferrals[msg.sender] = 0;\n        token.transfer(msg.sender, withdraw);\n\n    }\n    \n    function withdrawRewards() public {\n        require(myKCLRewards[msg.sender] > 0, \"You don't have any rewards\");\n        uint withdraw = myKCLRewards[msg.sender];\n        myKCLRewards[msg.sender] = 0;\n        token.transfer(msg.sender, withdraw);\n\n    }\n    \n    // Tax functions / Admin Functions\n    \n    function getFullTax() public view returns(uint) {\n        uint fullTax = SafeMath.add(adminTax, distributeTax).add(up1Tax).add(up2Tax).add(up3Tax).add(up4Tax);\n        return fullTax;\n    }\n    \n    function changeAdminTax(uint _newTax) public onlyOwner {\n        adminTax = _newTax;\n    }\n    \n    function changeDistributionTax(uint _newTax) public onlyOwner {\n        distributeTax = _newTax;\n    }\n    \n    function changeUp1Tax(uint _newTax) public onlyOwner {\n        up1Tax = _newTax;\n    }\n    \n    function changeUp2Tax(uint _newTax) public onlyOwner {\n        up2Tax = _newTax;\n    }\n    \n    function changeUp3Tax(uint _newTax) public onlyOwner {\n        up3Tax = _newTax;\n    }\n    \n    function changeUp4Tax(uint _newTax) public onlyOwner {\n        up4Tax = _newTax;\n    }\n    \n    function changeEarlyWithdrawalTax(uint _newTax) public onlyOwner {\n        earlyWithdrawalPercent = _newTax;\n    }\n    \n    function blackListAddress(address _user) public onlyOwner {\n        blacklist[_user] = true;\n    }\n    \n    function excludeFromTax(address _user) public onlyOwner {\n        excludeTax[_user] = true;\n    }\n    \n    function changeAdminWallet(address _newWallet) public onlyOwner {\n        transferOwnership(_newWallet);\n    }\n    \n    function setBasicPrice(uint _newPrice) public onlyOwner {\n        packPrices[0] = _newPrice;\n    }\n    \n    function setStandardPrice(uint _newPrice) public onlyOwner {\n        packPrices[1] = _newPrice;\n    }\n    \n    function setPremiumPrice(uint _newPrice) public onlyOwner {\n        packPrices[2] = _newPrice;\n    }\n}",
  "sourcePath": "/Users/israeladelaja/Desktop/KCLWealth/contracts/KCLWealth.sol",
  "compiler": {
    "name": "solc",
    "version": "0.8.8+commit.dddeac2f.Emscripten.clang"
  },
  "schemaVersion": "3.4.2",
  "updatedAt": "2021-09-29T09:49:55.562Z",
  "devdoc": {
    "kind": "dev",
    "methods": {
      "owner()": {
        "details": "Returns the address of the current owner."
      },
      "renounceOwnership()": {
        "details": "Leaves the contract without owner. It will not be possible to call `onlyOwner` functions anymore. Can only be called by the current owner. NOTE: Renouncing ownership will leave the contract without an owner, thereby removing any functionality that is only available to the owner."
      },
      "transferOwnership(address)": {
        "details": "Transfers ownership of the contract to a new account (`newOwner`). Can only be called by the current owner."
      }
    },
    "version": 1
  },
  "userdoc": {
    "kind": "user",
    "methods": {},
    "version": 1
  }
}