{
  "contractName": "TestRageFace",
  "abi": [
    {
      "inputs": [
        {
          "internalType": "string",
          "name": "_name",
          "type": "string"
        },
        {
          "internalType": "string",
          "name": "_symbol",
          "type": "string"
        },
        {
          "internalType": "string",
          "name": "_initBaseURI",
          "type": "string"
        },
        {
          "internalType": "uint256",
          "name": "_startDate",
          "type": "uint256"
        }
      ],
      "stateMutability": "nonpayable",
      "type": "constructor"
    },
    {
      "anonymous": false,
      "inputs": [
        {
          "indexed": true,
          "internalType": "address",
          "name": "owner",
          "type": "address"
        },
        {
          "indexed": true,
          "internalType": "address",
          "name": "approved",
          "type": "address"
        },
        {
          "indexed": true,
          "internalType": "uint256",
          "name": "tokenId",
          "type": "uint256"
        }
      ],
      "name": "Approval",
      "type": "event"
    },
    {
      "anonymous": false,
      "inputs": [
        {
          "indexed": true,
          "internalType": "address",
          "name": "owner",
          "type": "address"
        },
        {
          "indexed": true,
          "internalType": "address",
          "name": "operator",
          "type": "address"
        },
        {
          "indexed": false,
          "internalType": "bool",
          "name": "approved",
          "type": "bool"
        }
      ],
      "name": "ApprovalForAll",
      "type": "event"
    },
    {
      "anonymous": false,
      "inputs": [
        {
          "indexed": true,
          "internalType": "address",
          "name": "previousOwner",
          "type": "address"
        },
        {
          "indexed": true,
          "internalType": "address",
          "name": "newOwner",
          "type": "address"
        }
      ],
      "name": "OwnershipTransferred",
      "type": "event"
    },
    {
      "anonymous": false,
      "inputs": [
        {
          "indexed": true,
          "internalType": "address",
          "name": "from",
          "type": "address"
        },
        {
          "indexed": true,
          "internalType": "address",
          "name": "to",
          "type": "address"
        },
        {
          "indexed": true,
          "internalType": "uint256",
          "name": "tokenId",
          "type": "uint256"
        }
      ],
      "name": "Transfer",
      "type": "event"
    },
    {
      "inputs": [
        {
          "internalType": "address",
          "name": "to",
          "type": "address"
        },
        {
          "internalType": "uint256",
          "name": "tokenId",
          "type": "uint256"
        }
      ],
      "name": "approve",
      "outputs": [],
      "stateMutability": "nonpayable",
      "type": "function"
    },
    {
      "inputs": [
        {
          "internalType": "address",
          "name": "owner",
          "type": "address"
        }
      ],
      "name": "balanceOf",
      "outputs": [
        {
          "internalType": "uint256",
          "name": "",
          "type": "uint256"
        }
      ],
      "stateMutability": "view",
      "type": "function"
    },
    {
      "inputs": [],
      "name": "baseExtension",
      "outputs": [
        {
          "internalType": "string",
          "name": "",
          "type": "string"
        }
      ],
      "stateMutability": "view",
      "type": "function"
    },
    {
      "inputs": [],
      "name": "baseURI",
      "outputs": [
        {
          "internalType": "string",
          "name": "",
          "type": "string"
        }
      ],
      "stateMutability": "view",
      "type": "function"
    },
    {
      "inputs": [],
      "name": "cost",
      "outputs": [
        {
          "internalType": "uint256",
          "name": "",
          "type": "uint256"
        }
      ],
      "stateMutability": "view",
      "type": "function"
    },
    {
      "inputs": [
        {
          "internalType": "uint256",
          "name": "tokenId",
          "type": "uint256"
        }
      ],
      "name": "getApproved",
      "outputs": [
        {
          "internalType": "address",
          "name": "",
          "type": "address"
        }
      ],
      "stateMutability": "view",
      "type": "function"
    },
    {
      "inputs": [
        {
          "internalType": "address",
          "name": "owner",
          "type": "address"
        },
        {
          "internalType": "address",
          "name": "operator",
          "type": "address"
        }
      ],
      "name": "isApprovedForAll",
      "outputs": [
        {
          "internalType": "bool",
          "name": "",
          "type": "bool"
        }
      ],
      "stateMutability": "view",
      "type": "function"
    },
    {
      "inputs": [],
      "name": "maxMintAmount",
      "outputs": [
        {
          "internalType": "uint256",
          "name": "",
          "type": "uint256"
        }
      ],
      "stateMutability": "view",
      "type": "function"
    },
    {
      "inputs": [],
      "name": "maxSupply",
      "outputs": [
        {
          "internalType": "uint256",
          "name": "",
          "type": "uint256"
        }
      ],
      "stateMutability": "view",
      "type": "function"
    },
    {
      "inputs": [],
      "name": "name",
      "outputs": [
        {
          "internalType": "string",
          "name": "",
          "type": "string"
        }
      ],
      "stateMutability": "view",
      "type": "function"
    },
    {
      "inputs": [],
      "name": "owner",
      "outputs": [
        {
          "internalType": "address",
          "name": "",
          "type": "address"
        }
      ],
      "stateMutability": "view",
      "type": "function"
    },
    {
      "inputs": [
        {
          "internalType": "uint256",
          "name": "tokenId",
          "type": "uint256"
        }
      ],
      "name": "ownerOf",
      "outputs": [
        {
          "internalType": "address",
          "name": "",
          "type": "address"
        }
      ],
      "stateMutability": "view",
      "type": "function"
    },
    {
      "inputs": [],
      "name": "paused",
      "outputs": [
        {
          "internalType": "bool",
          "name": "",
          "type": "bool"
        }
      ],
      "stateMutability": "view",
      "type": "function"
    },
    {
      "inputs": [],
      "name": "renounceOwnership",
      "outputs": [],
      "stateMutability": "nonpayable",
      "type": "function"
    },
    {
      "inputs": [
        {
          "internalType": "address",
          "name": "from",
          "type": "address"
        },
        {
          "internalType": "address",
          "name": "to",
          "type": "address"
        },
        {
          "internalType": "uint256",
          "name": "tokenId",
          "type": "uint256"
        }
      ],
      "name": "safeTransferFrom",
      "outputs": [],
      "stateMutability": "nonpayable",
      "type": "function"
    },
    {
      "inputs": [
        {
          "internalType": "address",
          "name": "from",
          "type": "address"
        },
        {
          "internalType": "address",
          "name": "to",
          "type": "address"
        },
        {
          "internalType": "uint256",
          "name": "tokenId",
          "type": "uint256"
        },
        {
          "internalType": "bytes",
          "name": "_data",
          "type": "bytes"
        }
      ],
      "name": "safeTransferFrom",
      "outputs": [],
      "stateMutability": "nonpayable",
      "type": "function"
    },
    {
      "inputs": [
        {
          "internalType": "address",
          "name": "operator",
          "type": "address"
        },
        {
          "internalType": "bool",
          "name": "approved",
          "type": "bool"
        }
      ],
      "name": "setApprovalForAll",
      "outputs": [],
      "stateMutability": "nonpayable",
      "type": "function"
    },
    {
      "inputs": [],
      "name": "startDate",
      "outputs": [
        {
          "internalType": "uint256",
          "name": "",
          "type": "uint256"
        }
      ],
      "stateMutability": "view",
      "type": "function"
    },
    {
      "inputs": [
        {
          "internalType": "bytes4",
          "name": "interfaceId",
          "type": "bytes4"
        }
      ],
      "name": "supportsInterface",
      "outputs": [
        {
          "internalType": "bool",
          "name": "",
          "type": "bool"
        }
      ],
      "stateMutability": "view",
      "type": "function"
    },
    {
      "inputs": [],
      "name": "symbol",
      "outputs": [
        {
          "internalType": "string",
          "name": "",
          "type": "string"
        }
      ],
      "stateMutability": "view",
      "type": "function"
    },
    {
      "inputs": [
        {
          "internalType": "uint256",
          "name": "index",
          "type": "uint256"
        }
      ],
      "name": "tokenByIndex",
      "outputs": [
        {
          "internalType": "uint256",
          "name": "",
          "type": "uint256"
        }
      ],
      "stateMutability": "view",
      "type": "function"
    },
    {
      "inputs": [
        {
          "internalType": "address",
          "name": "owner",
          "type": "address"
        },
        {
          "internalType": "uint256",
          "name": "index",
          "type": "uint256"
        }
      ],
      "name": "tokenOfOwnerByIndex",
      "outputs": [
        {
          "internalType": "uint256",
          "name": "",
          "type": "uint256"
        }
      ],
      "stateMutability": "view",
      "type": "function"
    },
    {
      "inputs": [],
      "name": "totalSupply",
      "outputs": [
        {
          "internalType": "uint256",
          "name": "",
          "type": "uint256"
        }
      ],
      "stateMutability": "view",
      "type": "function"
    },
    {
      "inputs": [
        {
          "internalType": "address",
          "name": "from",
          "type": "address"
        },
        {
          "internalType": "address",
          "name": "to",
          "type": "address"
        },
        {
          "internalType": "uint256",
          "name": "tokenId",
          "type": "uint256"
        }
      ],
      "name": "transferFrom",
      "outputs": [],
      "stateMutability": "nonpayable",
      "type": "function"
    },
    {
      "inputs": [
        {
          "internalType": "address",
          "name": "newOwner",
          "type": "address"
        }
      ],
      "name": "transferOwnership",
      "outputs": [],
      "stateMutability": "nonpayable",
      "type": "function"
    },
    {
      "inputs": [
        {
          "internalType": "address",
          "name": "",
          "type": "address"
        }
      ],
      "name": "whitelisted",
      "outputs": [
        {
          "internalType": "bool",
          "name": "",
          "type": "bool"
        }
      ],
      "stateMutability": "view",
      "type": "function"
    },
    {
      "inputs": [
        {
          "internalType": "address",
          "name": "_to",
          "type": "address"
        },
        {
          "internalType": "uint256",
          "name": "_mintAmount",
          "type": "uint256"
        }
      ],
      "name": "mint",
      "outputs": [],
      "stateMutability": "payable",
      "type": "function"
    },
    {
      "inputs": [
        {
          "internalType": "address",
          "name": "_owner",
          "type": "address"
        }
      ],
      "name": "walletOfOwner",
      "outputs": [
        {
          "internalType": "uint256[]",
          "name": "",
          "type": "uint256[]"
        }
      ],
      "stateMutability": "view",
      "type": "function"
    },
    {
      "inputs": [
        {
          "internalType": "uint256",
          "name": "tokenId",
          "type": "uint256"
        }
      ],
      "name": "tokenURI",
      "outputs": [
        {
          "internalType": "string",
          "name": "",
          "type": "string"
        }
      ],
      "stateMutability": "view",
      "type": "function"
    },
    {
      "inputs": [
        {
          "internalType": "uint256",
          "name": "_newCost",
          "type": "uint256"
        }
      ],
      "name": "setCost",
      "outputs": [],
      "stateMutability": "nonpayable",
      "type": "function"
    },
    {
      "inputs": [
        {
          "internalType": "uint256",
          "name": "_newDate",
          "type": "uint256"
        }
      ],
      "name": "setStartDate",
      "outputs": [],
      "stateMutability": "nonpayable",
      "type": "function"
    },
    {
      "inputs": [
        {
          "internalType": "uint256",
          "name": "_newmaxMintAmount",
          "type": "uint256"
        }
      ],
      "name": "setmaxMintAmount",
      "outputs": [],
      "stateMutability": "nonpayable",
      "type": "function"
    },
    {
      "inputs": [
        {
          "internalType": "string",
          "name": "_newBaseURI",
          "type": "string"
        }
      ],
      "name": "setBaseURI",
      "outputs": [],
      "stateMutability": "nonpayable",
      "type": "function"
    },
    {
      "inputs": [
        {
          "internalType": "string",
          "name": "_newBaseExtension",
          "type": "string"
        }
      ],
      "name": "setBaseExtension",
      "outputs": [],
      "stateMutability": "nonpayable",
      "type": "function"
    },
    {
      "inputs": [
        {
          "internalType": "bool",
          "name": "_state",
          "type": "bool"
        }
      ],
      "name": "pause",
      "outputs": [],
      "stateMutability": "nonpayable",
      "type": "function"
    },
    {
      "inputs": [
        {
          "internalType": "address",
          "name": "_user",
          "type": "address"
        }
      ],
      "name": "whitelistUser",
      "outputs": [],
      "stateMutability": "nonpayable",
      "type": "function"
    },
    {
      "inputs": [
        {
          "internalType": "address",
          "name": "_user",
          "type": "address"
        }
      ],
      "name": "removeWhitelistUser",
      "outputs": [],
      "stateMutability": "nonpayable",
      "type": "function"
    },
    {
      "inputs": [],
      "name": "withdraw",
      "outputs": [],
      "stateMutability": "payable",
      "type": "function"
    }
  ],
  "bytecode": "0x60806040526040518060400160405280600581526020017f2e6a736f6e000000000000000000000000000000000000000000000000000000815250600c90805190602001906200005192919062000cef565b5066b1a2bc2ec50000600d55612710600e556032600f556000601060006101000a81548160ff0219169083151502179055503480156200009057600080fd5b5060405162005d2a38038062005d2a8339818101604052810190620000b6919062000f77565b83838160009080519060200190620000d092919062000cef565b508060019080519060200190620000e992919062000cef565b5050506200010c620001006200016460201b60201c565b6200016c60201b60201c565b8060138190555062000124826200023260201b60201c565b60005b60968110156200015957620001433382620002dd60201b60201c565b8080620001509062001075565b91505062000127565b50505050506200164b565b600033905090565b6000600a60009054906101000a900473ffffffffffffffffffffffffffffffffffffffff16905081600a60006101000a81548173ffffffffffffffffffffffffffffffffffffffff021916908373ffffffffffffffffffffffffffffffffffffffff1602179055508173ffffffffffffffffffffffffffffffffffffffff168173ffffffffffffffffffffffffffffffffffffffff167f8be0079c531659141344cd1fd0a4f28419497f9722a3daafe3b4186f6b6457e060405160405180910390a35050565b620002426200016460201b60201c565b73ffffffffffffffffffffffffffffffffffffffff16620002686200030360201b60201c565b73ffffffffffffffffffffffffffffffffffffffff1614620002c1576040517f08c379a0000000000000000000000000000000000000000000000000000000008152600401620002b89062001124565b60405180910390fd5b80600b9080519060200190620002d992919062000cef565b5050565b620002ff8282604051806020016040528060008152506200032d60201b60201c565b5050565b6000600a60009054906101000a900473ffffffffffffffffffffffffffffffffffffffff16905090565b6200033f83836200039b60201b60201c565b6200035460008484846200058160201b60201c565b62000396576040517f08c379a00000000000000000000000000000000000000000000000000000000081526004016200038d90620011bc565b60405180910390fd5b505050565b600073ffffffffffffffffffffffffffffffffffffffff168273ffffffffffffffffffffffffffffffffffffffff1614156200040e576040517f08c379a000000000000000000000000000000000000000000000000000000000815260040162000405906200122e565b60405180910390fd5b6200041f816200073b60201b60201c565b1562000462576040517f08c379a00000000000000000000000000000000000000000000000000000000081526004016200045990620012a0565b60405180910390fd5b6200047660008383620007a760201b60201c565b6001600360008473ffffffffffffffffffffffffffffffffffffffff1673ffffffffffffffffffffffffffffffffffffffff1681526020019081526020016000206000828254620004c89190620012c2565b92505081905550816002600083815260200190815260200160002060006101000a81548173ffffffffffffffffffffffffffffffffffffffff021916908373ffffffffffffffffffffffffffffffffffffffff160217905550808273ffffffffffffffffffffffffffffffffffffffff16600073ffffffffffffffffffffffffffffffffffffffff167fddf252ad1be2c89b69c2b068fc378daa952ba7f163c4a11628f55a4df523b3ef60405160405180910390a45050565b6000620005af8473ffffffffffffffffffffffffffffffffffffffff16620008ee60201b62001e2a1760201c565b156200072e578373ffffffffffffffffffffffffffffffffffffffff1663150b7a02620005e16200016460201b60201c565b8786866040518563ffffffff1660e01b8152600401620006059493929190620013d2565b602060405180830381600087803b1580156200062057600080fd5b505af19250505080156200065457506040513d601f19601f8201168201806040525081019062000651919062001483565b60015b620006dd573d806000811462000687576040519150601f19603f3d011682016040523d82523d6000602084013e6200068c565b606091505b50600081511415620006d5576040517f08c379a0000000000000000000000000000000000000000000000000000000008152600401620006cc90620011bc565b60405180910390fd5b805181602001fd5b63150b7a0260e01b7bffffffffffffffffffffffffffffffffffffffffffffffffffffffff1916817bffffffffffffffffffffffffffffffffffffffffffffffffffffffff19161491505062000733565b600190505b949350505050565b60008073ffffffffffffffffffffffffffffffffffffffff166002600084815260200190815260200160002060009054906101000a900473ffffffffffffffffffffffffffffffffffffffff1673ffffffffffffffffffffffffffffffffffffffff1614159050919050565b620007bf8383836200090160201b62001e3d1760201c565b600073ffffffffffffffffffffffffffffffffffffffff168373ffffffffffffffffffffffffffffffffffffffff1614156200080c5762000806816200090660201b60201c565b62000854565b8173ffffffffffffffffffffffffffffffffffffffff168373ffffffffffffffffffffffffffffffffffffffff161462000853576200085283826200094f60201b60201c565b5b5b600073ffffffffffffffffffffffffffffffffffffffff168273ffffffffffffffffffffffffffffffffffffffff161415620008a1576200089b8162000acc60201b60201c565b620008e9565b8273ffffffffffffffffffffffffffffffffffffffff168273ffffffffffffffffffffffffffffffffffffffff1614620008e857620008e7828262000ba860201b60201c565b5b5b505050565b600080823b905060008111915050919050565b505050565b6008805490506009600083815260200190815260200160002081905550600881908060018154018082558091505060019003906000526020600020016000909190919091505550565b60006001620009698462000c3460201b620015bf1760201c565b620009759190620014b5565b905060006007600084815260200190815260200160002054905081811462000a5b576000600660008673ffffffffffffffffffffffffffffffffffffffff1673ffffffffffffffffffffffffffffffffffffffff168152602001908152602001600020600084815260200190815260200160002054905080600660008773ffffffffffffffffffffffffffffffffffffffff1673ffffffffffffffffffffffffffffffffffffffff168152602001908152602001600020600084815260200190815260200160002081905550816007600083815260200190815260200160002081905550505b6007600084815260200190815260200160002060009055600660008573ffffffffffffffffffffffffffffffffffffffff1673ffffffffffffffffffffffffffffffffffffffff16815260200190815260200160002060008381526020019081526020016000206000905550505050565b6000600160088054905062000ae29190620014b5565b905060006009600084815260200190815260200160002054905060006008838154811062000b155762000b14620014f0565b5b90600052602060002001549050806008838154811062000b3a5762000b39620014f0565b5b90600052602060002001819055508160096000838152602001908152602001600020819055506009600085815260200190815260200160002060009055600880548062000b8c5762000b8b6200151f565b5b6001900381819060005260206000200160009055905550505050565b600062000bc08362000c3460201b620015bf1760201c565b905081600660008573ffffffffffffffffffffffffffffffffffffffff1673ffffffffffffffffffffffffffffffffffffffff168152602001908152602001600020600083815260200190815260200160002081905550806007600084815260200190815260200160002081905550505050565b60008073ffffffffffffffffffffffffffffffffffffffff168273ffffffffffffffffffffffffffffffffffffffff16141562000ca8576040517f08c379a000000000000000000000000000000000000000000000000000000000815260040162000c9f90620015c4565b60405180910390fd5b600360008373ffffffffffffffffffffffffffffffffffffffff1673ffffffffffffffffffffffffffffffffffffffff168152602001908152602001600020549050919050565b82805462000cfd9062001615565b90600052602060002090601f01602090048101928262000d21576000855562000d6d565b82601f1062000d3c57805160ff191683800117855562000d6d565b8280016001018555821562000d6d579182015b8281111562000d6c57825182559160200191906001019062000d4f565b5b50905062000d7c919062000d80565b5090565b5b8082111562000d9b57600081600090555060010162000d81565b5090565b6000604051905090565b600080fd5b600080fd5b600080fd5b600080fd5b6000601f19601f8301169050919050565b7f4e487b7100000000000000000000000000000000000000000000000000000000600052604160045260246000fd5b62000e088262000dbd565b810181811067ffffffffffffffff8211171562000e2a5762000e2962000dce565b5b80604052505050565b600062000e3f62000d9f565b905062000e4d828262000dfd565b919050565b600067ffffffffffffffff82111562000e705762000e6f62000dce565b5b62000e7b8262000dbd565b9050602081019050919050565b60005b8381101562000ea857808201518184015260208101905062000e8b565b8381111562000eb8576000848401525b50505050565b600062000ed562000ecf8462000e52565b62000e33565b90508281526020810184848401111562000ef45762000ef362000db8565b5b62000f0184828562000e88565b509392505050565b600082601f83011262000f215762000f2062000db3565b5b815162000f3384826020860162000ebe565b91505092915050565b6000819050919050565b62000f518162000f3c565b811462000f5d57600080fd5b50565b60008151905062000f718162000f46565b92915050565b6000806000806080858703121562000f945762000f9362000da9565b5b600085015167ffffffffffffffff81111562000fb55762000fb462000dae565b5b62000fc38782880162000f09565b945050602085015167ffffffffffffffff81111562000fe75762000fe662000dae565b5b62000ff58782880162000f09565b935050604085015167ffffffffffffffff81111562001019576200101862000dae565b5b620010278782880162000f09565b92505060606200103a8782880162000f60565b91505092959194509250565b7f4e487b7100000000000000000000000000000000000000000000000000000000600052601160045260246000fd5b6000620010828262000f3c565b91507fffffffffffffffffffffffffffffffffffffffffffffffffffffffffffffffff821415620010b857620010b762001046565b5b600182019050919050565b600082825260208201905092915050565b7f4f776e61626c653a2063616c6c6572206973206e6f7420746865206f776e6572600082015250565b60006200110c602083620010c3565b91506200111982620010d4565b602082019050919050565b600060208201905081810360008301526200113f81620010fd565b9050919050565b7f4552433732313a207472616e7366657220746f206e6f6e20455243373231526560008201527f63656976657220696d706c656d656e7465720000000000000000000000000000602082015250565b6000620011a4603283620010c3565b9150620011b18262001146565b604082019050919050565b60006020820190508181036000830152620011d78162001195565b9050919050565b7f4552433732313a206d696e7420746f20746865207a65726f2061646472657373600082015250565b600062001216602083620010c3565b91506200122382620011de565b602082019050919050565b60006020820190508181036000830152620012498162001207565b9050919050565b7f4552433732313a20746f6b656e20616c7265616479206d696e74656400000000600082015250565b600062001288601c83620010c3565b9150620012958262001250565b602082019050919050565b60006020820190508181036000830152620012bb8162001279565b9050919050565b6000620012cf8262000f3c565b9150620012dc8362000f3c565b9250827fffffffffffffffffffffffffffffffffffffffffffffffffffffffffffffffff0382111562001314576200131362001046565b5b828201905092915050565b600073ffffffffffffffffffffffffffffffffffffffff82169050919050565b60006200134c826200131f565b9050919050565b6200135e816200133f565b82525050565b6200136f8162000f3c565b82525050565b600081519050919050565b600082825260208201905092915050565b60006200139e8262001375565b620013aa818562001380565b9350620013bc81856020860162000e88565b620013c78162000dbd565b840191505092915050565b6000608082019050620013e9600083018762001353565b620013f8602083018662001353565b62001407604083018562001364565b81810360608301526200141b818462001391565b905095945050505050565b60007fffffffff0000000000000000000000000000000000000000000000000000000082169050919050565b6200145d8162001426565b81146200146957600080fd5b50565b6000815190506200147d8162001452565b92915050565b6000602082840312156200149c576200149b62000da9565b5b6000620014ac848285016200146c565b91505092915050565b6000620014c28262000f3c565b9150620014cf8362000f3c565b925082821015620014e557620014e462001046565b5b828203905092915050565b7f4e487b7100000000000000000000000000000000000000000000000000000000600052603260045260246000fd5b7f4e487b7100000000000000000000000000000000000000000000000000000000600052603160045260246000fd5b7f4552433732313a2062616c616e636520717565727920666f7220746865207a6560008201527f726f206164647265737300000000000000000000000000000000000000000000602082015250565b6000620015ac602a83620010c3565b9150620015b9826200154e565b604082019050919050565b60006020820190508181036000830152620015df816200159d565b9050919050565b7f4e487b7100000000000000000000000000000000000000000000000000000000600052602260045260246000fd5b600060028204905060018216806200162e57607f821691505b60208210811415620016455762001644620015e6565b5b50919050565b6146cf806200165b6000396000f3fe6080604052600436106102255760003560e01c806355f804b31161012357806395d89b41116100ab578063d5abeb011161006f578063d5abeb01146107e9578063d936547e14610814578063da3ef23f14610851578063e985e9c51461087a578063f2fde38b146108b757610225565b806395d89b4114610704578063a22cb4651461072f578063b88d4fde14610758578063c668286214610781578063c87b56dd146107ac57610225565b806370a08231116100f257806370a0823114610633578063715018a6146106705780637f00c7a61461068757806382d95df5146106b05780638da5cb5b146106d957610225565b806355f804b3146105775780635c975abb146105a05780636352211e146105cb5780636c0360eb1461060857610225565b806323b872dd116101b157806342842e0e1161017557806342842e0e14610482578063438b6300146104ab57806344a0d68a146104e85780634a4c560d146105115780634f6ccce71461053a57610225565b806323b872dd146103cd5780632f745c59146103f657806330cc7ae0146104335780633ccfd60b1461045c57806340c10f191461046657610225565b8063095ea7b3116101f8578063095ea7b3146102f85780630b97bc861461032157806313faede61461034c57806318160ddd14610377578063239c70ae146103a257610225565b806301ffc9a71461022a57806302329a291461026757806306fdde0314610290578063081812fc146102bb575b600080fd5b34801561023657600080fd5b50610251600480360381019061024c9190613011565b6108e0565b60405161025e9190613059565b60405180910390f35b34801561027357600080fd5b5061028e600480360381019061028991906130a0565b61095a565b005b34801561029c57600080fd5b506102a56109f3565b6040516102b29190613166565b60405180910390f35b3480156102c757600080fd5b506102e260048036038101906102dd91906131be565b610a85565b6040516102ef919061322c565b60405180910390f35b34801561030457600080fd5b5061031f600480360381019061031a9190613273565b610b0a565b005b34801561032d57600080fd5b50610336610c22565b60405161034391906132c2565b60405180910390f35b34801561035857600080fd5b50610361610c28565b60405161036e91906132c2565b60405180910390f35b34801561038357600080fd5b5061038c610c2e565b60405161039991906132c2565b60405180910390f35b3480156103ae57600080fd5b506103b7610c3b565b6040516103c491906132c2565b60405180910390f35b3480156103d957600080fd5b506103f460048036038101906103ef91906132dd565b610c41565b005b34801561040257600080fd5b5061041d60048036038101906104189190613273565b610ca1565b60405161042a91906132c2565b60405180910390f35b34801561043f57600080fd5b5061045a60048036038101906104559190613330565b610d46565b005b610464610e1d565b005b610480600480360381019061047b9190613273565b610ed9565b005b34801561048e57600080fd5b506104a960048036038101906104a491906132dd565b61113a565b005b3480156104b757600080fd5b506104d260048036038101906104cd9190613330565b61115a565b6040516104df919061341b565b60405180910390f35b3480156104f457600080fd5b5061050f600480360381019061050a91906131be565b611208565b005b34801561051d57600080fd5b5061053860048036038101906105339190613330565b61128e565b005b34801561054657600080fd5b50610561600480360381019061055c91906131be565b611365565b60405161056e91906132c2565b60405180910390f35b34801561058357600080fd5b5061059e60048036038101906105999190613572565b6113d6565b005b3480156105ac57600080fd5b506105b561146c565b6040516105c29190613059565b60405180910390f35b3480156105d757600080fd5b506105f260048036038101906105ed91906131be565b61147f565b6040516105ff919061322c565b60405180910390f35b34801561061457600080fd5b5061061d611531565b60405161062a9190613166565b60405180910390f35b34801561063f57600080fd5b5061065a60048036038101906106559190613330565b6115bf565b60405161066791906132c2565b60405180910390f35b34801561067c57600080fd5b50610685611677565b005b34801561069357600080fd5b506106ae60048036038101906106a991906131be565b6116ff565b005b3480156106bc57600080fd5b506106d760048036038101906106d291906131be565b611785565b005b3480156106e557600080fd5b506106ee61180b565b6040516106fb919061322c565b60405180910390f35b34801561071057600080fd5b50610719611835565b6040516107269190613166565b60405180910390f35b34801561073b57600080fd5b50610756600480360381019061075191906135bb565b6118c7565b005b34801561076457600080fd5b5061077f600480360381019061077a919061369c565b611a48565b005b34801561078d57600080fd5b50610796611aaa565b6040516107a39190613166565b60405180910390f35b3480156107b857600080fd5b506107d360048036038101906107ce91906131be565b611b38565b6040516107e09190613166565b60405180910390f35b3480156107f557600080fd5b506107fe611be2565b60405161080b91906132c2565b60405180910390f35b34801561082057600080fd5b5061083b60048036038101906108369190613330565b611be8565b6040516108489190613059565b60405180910390f35b34801561085d57600080fd5b5061087860048036038101906108739190613572565b611c08565b005b34801561088657600080fd5b506108a1600480360381019061089c919061371f565b611c9e565b6040516108ae9190613059565b60405180910390f35b3480156108c357600080fd5b506108de60048036038101906108d99190613330565b611d32565b005b60007f780e9d63000000000000000000000000000000000000000000000000000000007bffffffffffffffffffffffffffffffffffffffffffffffffffffffff1916827bffffffffffffffffffffffffffffffffffffffffffffffffffffffff19161480610953575061095282611e42565b5b9050919050565b610962611f24565b73ffffffffffffffffffffffffffffffffffffffff1661098061180b565b73ffffffffffffffffffffffffffffffffffffffff16146109d6576040517f08c379a00000000000000000000000000000000000000000000000000000000081526004016109cd906137ab565b60405180910390fd5b80601060006101000a81548160ff02191690831515021790555050565b606060008054610a02906137fa565b80601f0160208091040260200160405190810160405280929190818152602001828054610a2e906137fa565b8015610a7b5780601f10610a5057610100808354040283529160200191610a7b565b820191906000526020600020905b815481529060010190602001808311610a5e57829003601f168201915b5050505050905090565b6000610a9082611f2c565b610acf576040517f08c379a0000000000000000000000000000000000000000000000000000000008152600401610ac69061389e565b60405180910390fd5b6004600083815260200190815260200160002060009054906101000a900473ffffffffffffffffffffffffffffffffffffffff169050919050565b6000610b158261147f565b90508073ffffffffffffffffffffffffffffffffffffffff168373ffffffffffffffffffffffffffffffffffffffff161415610b86576040517f08c379a0000000000000000000000000000000000000000000000000000000008152600401610b7d90613930565b60405180910390fd5b8073ffffffffffffffffffffffffffffffffffffffff16610ba5611f24565b73ffffffffffffffffffffffffffffffffffffffff161480610bd45750610bd381610bce611f24565b611c9e565b5b610c13576040517f08c379a0000000000000000000000000000000000000000000000000000000008152600401610c0a906139c2565b60405180910390fd5b610c1d8383611f98565b505050565b60135481565b600d5481565b6000600880549050905090565b600f5481565b610c52610c4c611f24565b82612051565b610c91576040517f08c379a0000000000000000000000000000000000000000000000000000000008152600401610c8890613a54565b60405180910390fd5b610c9c83838361212f565b505050565b6000610cac836115bf565b8210610ced576040517f08c379a0000000000000000000000000000000000000000000000000000000008152600401610ce490613ae6565b60405180910390fd5b600660008473ffffffffffffffffffffffffffffffffffffffff1673ffffffffffffffffffffffffffffffffffffffff168152602001908152602001600020600083815260200190815260200160002054905092915050565b610d4e611f24565b73ffffffffffffffffffffffffffffffffffffffff16610d6c61180b565b73ffffffffffffffffffffffffffffffffffffffff1614610dc2576040517f08c379a0000000000000000000000000000000000000000000000000000000008152600401610db9906137ab565b60405180910390fd5b6000601160008373ffffffffffffffffffffffffffffffffffffffff1673ffffffffffffffffffffffffffffffffffffffff16815260200190815260200160002060006101000a81548160ff02191690831515021790555050565b610e25611f24565b73ffffffffffffffffffffffffffffffffffffffff16610e4361180b565b73ffffffffffffffffffffffffffffffffffffffff1614610e99576040517f08c379a0000000000000000000000000000000000000000000000000000000008152600401610e90906137ab565b60405180910390fd5b3373ffffffffffffffffffffffffffffffffffffffff166108fc479081150290604051600060405180830381858888f19350505050610ed757600080fd5b565b6000610ee3610c2e565b9050601060009054906101000a900460ff1615610eff57600080fd5b60008211610f0c57600080fd5b600f5482601260003373ffffffffffffffffffffffffffffffffffffffff1673ffffffffffffffffffffffffffffffffffffffff16815260200190815260200160002054610f5a9190613b35565b1115610f9b576040517f08c379a0000000000000000000000000000000000000000000000000000000008152600401610f9290613bfd565b60405180910390fd5b600e548282610faa9190613b35565b1115610fb557600080fd5b601354421015610ffa576040517f08c379a0000000000000000000000000000000000000000000000000000000008152600401610ff190613c69565b60405180910390fd5b61100261180b565b73ffffffffffffffffffffffffffffffffffffffff163373ffffffffffffffffffffffffffffffffffffffff16146110a85760011515601160003373ffffffffffffffffffffffffffffffffffffffff1673ffffffffffffffffffffffffffffffffffffffff16815260200190815260200160002060009054906101000a900460ff161515146110a75781600d5461109a9190613c89565b3410156110a657600080fd5b5b5b81601260003373ffffffffffffffffffffffffffffffffffffffff1673ffffffffffffffffffffffffffffffffffffffff16815260200190815260200160002060008282546110f79190613b35565b925050819055506000600190505b8281116111345761112184828461111c9190613b35565b61238b565b808061112c90613ce3565b915050611105565b50505050565b61115583838360405180602001604052806000815250611a48565b505050565b60606000611167836115bf565b905060008167ffffffffffffffff81111561118557611184613447565b5b6040519080825280602002602001820160405280156111b35781602001602082028036833780820191505090505b50905060005b828110156111fd576111cb8582610ca1565b8282815181106111de576111dd613d2c565b5b60200260200101818152505080806111f590613ce3565b9150506111b9565b508092505050919050565b611210611f24565b73ffffffffffffffffffffffffffffffffffffffff1661122e61180b565b73ffffffffffffffffffffffffffffffffffffffff1614611284576040517f08c379a000000000000000000000000000000000000000000000000000000000815260040161127b906137ab565b60405180910390fd5b80600d8190555050565b611296611f24565b73ffffffffffffffffffffffffffffffffffffffff166112b461180b565b73ffffffffffffffffffffffffffffffffffffffff161461130a576040517f08c379a0000000000000000000000000000000000000000000000000000000008152600401611301906137ab565b60405180910390fd5b6001601160008373ffffffffffffffffffffffffffffffffffffffff1673ffffffffffffffffffffffffffffffffffffffff16815260200190815260200160002060006101000a81548160ff02191690831515021790555050565b600061136f610c2e565b82106113b0576040517f08c379a00000000000000000000000000000000000000000000000000000000081526004016113a790613dcd565b60405180910390fd5b600882815481106113c4576113c3613d2c565b5b90600052602060002001549050919050565b6113de611f24565b73ffffffffffffffffffffffffffffffffffffffff166113fc61180b565b73ffffffffffffffffffffffffffffffffffffffff1614611452576040517f08c379a0000000000000000000000000000000000000000000000000000000008152600401611449906137ab565b60405180910390fd5b80600b9080519060200190611468929190612f02565b5050565b601060009054906101000a900460ff1681565b6000806002600084815260200190815260200160002060009054906101000a900473ffffffffffffffffffffffffffffffffffffffff169050600073ffffffffffffffffffffffffffffffffffffffff168173ffffffffffffffffffffffffffffffffffffffff161415611528576040517f08c379a000000000000000000000000000000000000000000000000000000000815260040161151f90613e5f565b60405180910390fd5b80915050919050565b600b805461153e906137fa565b80601f016020809104026020016040519081016040528092919081815260200182805461156a906137fa565b80156115b75780601f1061158c576101008083540402835291602001916115b7565b820191906000526020600020905b81548152906001019060200180831161159a57829003601f168201915b505050505081565b60008073ffffffffffffffffffffffffffffffffffffffff168273ffffffffffffffffffffffffffffffffffffffff161415611630576040517f08c379a000000000000000000000000000000000000000000000000000000000815260040161162790613ef1565b60405180910390fd5b600360008373ffffffffffffffffffffffffffffffffffffffff1673ffffffffffffffffffffffffffffffffffffffff168152602001908152602001600020549050919050565b61167f611f24565b73ffffffffffffffffffffffffffffffffffffffff1661169d61180b565b73ffffffffffffffffffffffffffffffffffffffff16146116f3576040517f08c379a00000000000000000000000000000000000000000000000000000000081526004016116ea906137ab565b60405180910390fd5b6116fd60006123a9565b565b611707611f24565b73ffffffffffffffffffffffffffffffffffffffff1661172561180b565b73ffffffffffffffffffffffffffffffffffffffff161461177b576040517f08c379a0000000000000000000000000000000000000000000000000000000008152600401611772906137ab565b60405180910390fd5b80600f8190555050565b61178d611f24565b73ffffffffffffffffffffffffffffffffffffffff166117ab61180b565b73ffffffffffffffffffffffffffffffffffffffff1614611801576040517f08c379a00000000000000000000000000000000000000000000000000000000081526004016117f8906137ab565b60405180910390fd5b8060138190555050565b6000600a60009054906101000a900473ffffffffffffffffffffffffffffffffffffffff16905090565b606060018054611844906137fa565b80601f0160208091040260200160405190810160405280929190818152602001828054611870906137fa565b80156118bd5780601f10611892576101008083540402835291602001916118bd565b820191906000526020600020905b8154815290600101906020018083116118a057829003601f168201915b5050505050905090565b6118cf611f24565b73ffffffffffffffffffffffffffffffffffffffff168273ffffffffffffffffffffffffffffffffffffffff16141561193d576040517f08c379a000000000000000000000000000000000000000000000000000000000815260040161193490613f5d565b60405180910390fd5b806005600061194a611f24565b73ffffffffffffffffffffffffffffffffffffffff1673ffffffffffffffffffffffffffffffffffffffff16815260200190815260200160002060008473ffffffffffffffffffffffffffffffffffffffff1673ffffffffffffffffffffffffffffffffffffffff16815260200190815260200160002060006101000a81548160ff0219169083151502179055508173ffffffffffffffffffffffffffffffffffffffff166119f7611f24565b73ffffffffffffffffffffffffffffffffffffffff167f17307eab39ab6107e8899845ad3d59bd9653f200f220920489ca2b5937696c3183604051611a3c9190613059565b60405180910390a35050565b611a59611a53611f24565b83612051565b611a98576040517f08c379a0000000000000000000000000000000000000000000000000000000008152600401611a8f90613a54565b60405180910390fd5b611aa48484848461246f565b50505050565b600c8054611ab7906137fa565b80601f0160208091040260200160405190810160405280929190818152602001828054611ae3906137fa565b8015611b305780601f10611b0557610100808354040283529160200191611b30565b820191906000526020600020905b815481529060010190602001808311611b1357829003601f168201915b505050505081565b6060611b4382611f2c565b611b82576040517f08c379a0000000000000000000000000000000000000000000000000000000008152600401611b7990613fef565b60405180910390fd5b6000611b8c6124cb565b90506000815111611bac5760405180602001604052806000815250611bda565b80611bb68461255d565b600c604051602001611bca939291906140df565b6040516020818303038152906040525b915050919050565b600e5481565b60116020528060005260406000206000915054906101000a900460ff1681565b611c10611f24565b73ffffffffffffffffffffffffffffffffffffffff16611c2e61180b565b73ffffffffffffffffffffffffffffffffffffffff1614611c84576040517f08c379a0000000000000000000000000000000000000000000000000000000008152600401611c7b906137ab565b60405180910390fd5b80600c9080519060200190611c9a929190612f02565b5050565b6000600560008473ffffffffffffffffffffffffffffffffffffffff1673ffffffffffffffffffffffffffffffffffffffff16815260200190815260200160002060008373ffffffffffffffffffffffffffffffffffffffff1673ffffffffffffffffffffffffffffffffffffffff16815260200190815260200160002060009054906101000a900460ff16905092915050565b611d3a611f24565b73ffffffffffffffffffffffffffffffffffffffff16611d5861180b565b73ffffffffffffffffffffffffffffffffffffffff1614611dae576040517f08c379a0000000000000000000000000000000000000000000000000000000008152600401611da5906137ab565b60405180910390fd5b600073ffffffffffffffffffffffffffffffffffffffff168173ffffffffffffffffffffffffffffffffffffffff161415611e1e576040517f08c379a0000000000000000000000000000000000000000000000000000000008152600401611e1590614182565b60405180910390fd5b611e27816123a9565b50565b600080823b905060008111915050919050565b505050565b60007f80ac58cd000000000000000000000000000000000000000000000000000000007bffffffffffffffffffffffffffffffffffffffffffffffffffffffff1916827bffffffffffffffffffffffffffffffffffffffffffffffffffffffff19161480611f0d57507f5b5e139f000000000000000000000000000000000000000000000000000000007bffffffffffffffffffffffffffffffffffffffffffffffffffffffff1916827bffffffffffffffffffffffffffffffffffffffffffffffffffffffff1916145b80611f1d5750611f1c826126be565b5b9050919050565b600033905090565b60008073ffffffffffffffffffffffffffffffffffffffff166002600084815260200190815260200160002060009054906101000a900473ffffffffffffffffffffffffffffffffffffffff1673ffffffffffffffffffffffffffffffffffffffff1614159050919050565b816004600083815260200190815260200160002060006101000a81548173ffffffffffffffffffffffffffffffffffffffff021916908373ffffffffffffffffffffffffffffffffffffffff160217905550808273ffffffffffffffffffffffffffffffffffffffff1661200b8361147f565b73ffffffffffffffffffffffffffffffffffffffff167f8c5be1e5ebec7d5bd14f71427d1e84f3dd0314c0f7b2291e5b200ac8c7c3b92560405160405180910390a45050565b600061205c82611f2c565b61209b576040517f08c379a000000000000000000000000000000000000000000000000000000000815260040161209290614214565b60405180910390fd5b60006120a68361147f565b90508073ffffffffffffffffffffffffffffffffffffffff168473ffffffffffffffffffffffffffffffffffffffff16148061211557508373ffffffffffffffffffffffffffffffffffffffff166120fd84610a85565b73ffffffffffffffffffffffffffffffffffffffff16145b8061212657506121258185611c9e565b5b91505092915050565b8273ffffffffffffffffffffffffffffffffffffffff1661214f8261147f565b73ffffffffffffffffffffffffffffffffffffffff16146121a5576040517f08c379a000000000000000000000000000000000000000000000000000000000815260040161219c906142a6565b60405180910390fd5b600073ffffffffffffffffffffffffffffffffffffffff168273ffffffffffffffffffffffffffffffffffffffff161415612215576040517f08c379a000000000000000000000000000000000000000000000000000000000815260040161220c90614338565b60405180910390fd5b612220838383612728565b61222b600082611f98565b6001600360008573ffffffffffffffffffffffffffffffffffffffff1673ffffffffffffffffffffffffffffffffffffffff168152602001908152602001600020600082825461227b9190614358565b925050819055506001600360008473ffffffffffffffffffffffffffffffffffffffff1673ffffffffffffffffffffffffffffffffffffffff16815260200190815260200160002060008282546122d29190613b35565b92505081905550816002600083815260200190815260200160002060006101000a81548173ffffffffffffffffffffffffffffffffffffffff021916908373ffffffffffffffffffffffffffffffffffffffff160217905550808273ffffffffffffffffffffffffffffffffffffffff168473ffffffffffffffffffffffffffffffffffffffff167fddf252ad1be2c89b69c2b068fc378daa952ba7f163c4a11628f55a4df523b3ef60405160405180910390a4505050565b6123a582826040518060200160405280600081525061283c565b5050565b6000600a60009054906101000a900473ffffffffffffffffffffffffffffffffffffffff16905081600a60006101000a81548173ffffffffffffffffffffffffffffffffffffffff021916908373ffffffffffffffffffffffffffffffffffffffff1602179055508173ffffffffffffffffffffffffffffffffffffffff168173ffffffffffffffffffffffffffffffffffffffff167f8be0079c531659141344cd1fd0a4f28419497f9722a3daafe3b4186f6b6457e060405160405180910390a35050565b61247a84848461212f565b61248684848484612897565b6124c5576040517f08c379a00000000000000000000000000000000000000000000000000000000081526004016124bc906143fe565b60405180910390fd5b50505050565b6060600b80546124da906137fa565b80601f0160208091040260200160405190810160405280929190818152602001828054612506906137fa565b80156125535780601f1061252857610100808354040283529160200191612553565b820191906000526020600020905b81548152906001019060200180831161253657829003601f168201915b5050505050905090565b606060008214156125a5576040518060400160405280600181526020017f300000000000000000000000000000000000000000000000000000000000000081525090506126b9565b600082905060005b600082146125d75780806125c090613ce3565b915050600a826125d0919061444d565b91506125ad565b60008167ffffffffffffffff8111156125f3576125f2613447565b5b6040519080825280601f01601f1916602001820160405280156126255781602001600182028036833780820191505090505b5090505b600085146126b25760018261263e9190614358565b9150600a8561264d919061447e565b60306126599190613b35565b60f81b81838151811061266f5761266e613d2c565b5b60200101907effffffffffffffffffffffffffffffffffffffffffffffffffffffffffffff1916908160001a905350600a856126ab919061444d565b9450612629565b8093505050505b919050565b60007f01ffc9a7000000000000000000000000000000000000000000000000000000007bffffffffffffffffffffffffffffffffffffffffffffffffffffffff1916827bffffffffffffffffffffffffffffffffffffffffffffffffffffffff1916149050919050565b612733838383611e3d565b600073ffffffffffffffffffffffffffffffffffffffff168373ffffffffffffffffffffffffffffffffffffffff1614156127765761277181612a2e565b6127b5565b8173ffffffffffffffffffffffffffffffffffffffff168373ffffffffffffffffffffffffffffffffffffffff16146127b4576127b38382612a77565b5b5b600073ffffffffffffffffffffffffffffffffffffffff168273ffffffffffffffffffffffffffffffffffffffff1614156127f8576127f381612be4565b612837565b8273ffffffffffffffffffffffffffffffffffffffff168273ffffffffffffffffffffffffffffffffffffffff1614612836576128358282612cb5565b5b5b505050565b6128468383612d34565b6128536000848484612897565b612892576040517f08c379a0000000000000000000000000000000000000000000000000000000008152600401612889906143fe565b60405180910390fd5b505050565b60006128b88473ffffffffffffffffffffffffffffffffffffffff16611e2a565b15612a21578373ffffffffffffffffffffffffffffffffffffffff1663150b7a026128e1611f24565b8786866040518563ffffffff1660e01b81526004016129039493929190614504565b602060405180830381600087803b15801561291d57600080fd5b505af192505050801561294e57506040513d601f19601f8201168201806040525081019061294b9190614565565b60015b6129d1573d806000811461297e576040519150601f19603f3d011682016040523d82523d6000602084013e612983565b606091505b506000815114156129c9576040517f08c379a00000000000000000000000000000000000000000000000000000000081526004016129c0906143fe565b60405180910390fd5b805181602001fd5b63150b7a0260e01b7bffffffffffffffffffffffffffffffffffffffffffffffffffffffff1916817bffffffffffffffffffffffffffffffffffffffffffffffffffffffff191614915050612a26565b600190505b949350505050565b6008805490506009600083815260200190815260200160002081905550600881908060018154018082558091505060019003906000526020600020016000909190919091505550565b60006001612a84846115bf565b612a8e9190614358565b9050600060076000848152602001908152602001600020549050818114612b73576000600660008673ffffffffffffffffffffffffffffffffffffffff1673ffffffffffffffffffffffffffffffffffffffff168152602001908152602001600020600084815260200190815260200160002054905080600660008773ffffffffffffffffffffffffffffffffffffffff1673ffffffffffffffffffffffffffffffffffffffff168152602001908152602001600020600084815260200190815260200160002081905550816007600083815260200190815260200160002081905550505b6007600084815260200190815260200160002060009055600660008573ffffffffffffffffffffffffffffffffffffffff1673ffffffffffffffffffffffffffffffffffffffff16815260200190815260200160002060008381526020019081526020016000206000905550505050565b60006001600880549050612bf89190614358565b9050600060096000848152602001908152602001600020549050600060088381548110612c2857612c27613d2c565b5b906000526020600020015490508060088381548110612c4a57612c49613d2c565b5b906000526020600020018190555081600960008381526020019081526020016000208190555060096000858152602001908152602001600020600090556008805480612c9957612c98614592565b5b6001900381819060005260206000200160009055905550505050565b6000612cc0836115bf565b905081600660008573ffffffffffffffffffffffffffffffffffffffff1673ffffffffffffffffffffffffffffffffffffffff168152602001908152602001600020600083815260200190815260200160002081905550806007600084815260200190815260200160002081905550505050565b600073ffffffffffffffffffffffffffffffffffffffff168273ffffffffffffffffffffffffffffffffffffffff161415612da4576040517f08c379a0000000000000000000000000000000000000000000000000000000008152600401612d9b9061460d565b60405180910390fd5b612dad81611f2c565b15612ded576040517f08c379a0000000000000000000000000000000000000000000000000000000008152600401612de490614679565b60405180910390fd5b612df960008383612728565b6001600360008473ffffffffffffffffffffffffffffffffffffffff1673ffffffffffffffffffffffffffffffffffffffff1681526020019081526020016000206000828254612e499190613b35565b92505081905550816002600083815260200190815260200160002060006101000a81548173ffffffffffffffffffffffffffffffffffffffff021916908373ffffffffffffffffffffffffffffffffffffffff160217905550808273ffffffffffffffffffffffffffffffffffffffff16600073ffffffffffffffffffffffffffffffffffffffff167fddf252ad1be2c89b69c2b068fc378daa952ba7f163c4a11628f55a4df523b3ef60405160405180910390a45050565b828054612f0e906137fa565b90600052602060002090601f016020900481019282612f305760008555612f77565b82601f10612f4957805160ff1916838001178555612f77565b82800160010185558215612f77579182015b82811115612f76578251825591602001919060010190612f5b565b5b509050612f849190612f88565b5090565b5b80821115612fa1576000816000905550600101612f89565b5090565b6000604051905090565b600080fd5b600080fd5b60007fffffffff0000000000000000000000000000000000000000000000000000000082169050919050565b612fee81612fb9565b8114612ff957600080fd5b50565b60008135905061300b81612fe5565b92915050565b60006020828403121561302757613026612faf565b5b600061303584828501612ffc565b91505092915050565b60008115159050919050565b6130538161303e565b82525050565b600060208201905061306e600083018461304a565b92915050565b61307d8161303e565b811461308857600080fd5b50565b60008135905061309a81613074565b92915050565b6000602082840312156130b6576130b5612faf565b5b60006130c48482850161308b565b91505092915050565b600081519050919050565b600082825260208201905092915050565b60005b838110156131075780820151818401526020810190506130ec565b83811115613116576000848401525b50505050565b6000601f19601f8301169050919050565b6000613138826130cd565b61314281856130d8565b93506131528185602086016130e9565b61315b8161311c565b840191505092915050565b60006020820190508181036000830152613180818461312d565b905092915050565b6000819050919050565b61319b81613188565b81146131a657600080fd5b50565b6000813590506131b881613192565b92915050565b6000602082840312156131d4576131d3612faf565b5b60006131e2848285016131a9565b91505092915050565b600073ffffffffffffffffffffffffffffffffffffffff82169050919050565b6000613216826131eb565b9050919050565b6132268161320b565b82525050565b6000602082019050613241600083018461321d565b92915050565b6132508161320b565b811461325b57600080fd5b50565b60008135905061326d81613247565b92915050565b6000806040838503121561328a57613289612faf565b5b60006132988582860161325e565b92505060206132a9858286016131a9565b9150509250929050565b6132bc81613188565b82525050565b60006020820190506132d760008301846132b3565b92915050565b6000806000606084860312156132f6576132f5612faf565b5b60006133048682870161325e565b93505060206133158682870161325e565b9250506040613326868287016131a9565b9150509250925092565b60006020828403121561334657613345612faf565b5b60006133548482850161325e565b91505092915050565b600081519050919050565b600082825260208201905092915050565b6000819050602082019050919050565b61339281613188565b82525050565b60006133a48383613389565b60208301905092915050565b6000602082019050919050565b60006133c88261335d565b6133d28185613368565b93506133dd83613379565b8060005b8381101561340e5781516133f58882613398565b9750613400836133b0565b9250506001810190506133e1565b5085935050505092915050565b6000602082019050818103600083015261343581846133bd565b905092915050565b600080fd5b600080fd5b7f4e487b7100000000000000000000000000000000000000000000000000000000600052604160045260246000fd5b61347f8261311c565b810181811067ffffffffffffffff8211171561349e5761349d613447565b5b80604052505050565b60006134b1612fa5565b90506134bd8282613476565b919050565b600067ffffffffffffffff8211156134dd576134dc613447565b5b6134e68261311c565b9050602081019050919050565b82818337600083830152505050565b6000613515613510846134c2565b6134a7565b90508281526020810184848401111561353157613530613442565b5b61353c8482856134f3565b509392505050565b600082601f8301126135595761355861343d565b5b8135613569848260208601613502565b91505092915050565b60006020828403121561358857613587612faf565b5b600082013567ffffffffffffffff8111156135a6576135a5612fb4565b5b6135b284828501613544565b91505092915050565b600080604083850312156135d2576135d1612faf565b5b60006135e08582860161325e565b92505060206135f18582860161308b565b9150509250929050565b600067ffffffffffffffff82111561361657613615613447565b5b61361f8261311c565b9050602081019050919050565b600061363f61363a846135fb565b6134a7565b90508281526020810184848401111561365b5761365a613442565b5b6136668482856134f3565b509392505050565b600082601f8301126136835761368261343d565b5b813561369384826020860161362c565b91505092915050565b600080600080608085870312156136b6576136b5612faf565b5b60006136c48782880161325e565b94505060206136d58782880161325e565b93505060406136e6878288016131a9565b925050606085013567ffffffffffffffff81111561370757613706612fb4565b5b6137138782880161366e565b91505092959194509250565b6000806040838503121561373657613735612faf565b5b60006137448582860161325e565b92505060206137558582860161325e565b9150509250929050565b7f4f776e61626c653a2063616c6c6572206973206e6f7420746865206f776e6572600082015250565b60006137956020836130d8565b91506137a08261375f565b602082019050919050565b600060208201905081810360008301526137c481613788565b9050919050565b7f4e487b7100000000000000000000000000000000000000000000000000000000600052602260045260246000fd5b6000600282049050600182168061381257607f821691505b60208210811415613826576138256137cb565b5b50919050565b7f4552433732313a20617070726f76656420717565727920666f72206e6f6e657860008201527f697374656e7420746f6b656e0000000000000000000000000000000000000000602082015250565b6000613888602c836130d8565b91506138938261382c565b604082019050919050565b600060208201905081810360008301526138b78161387b565b9050919050565b7f4552433732313a20617070726f76616c20746f2063757272656e74206f776e6560008201527f7200000000000000000000000000000000000000000000000000000000000000602082015250565b600061391a6021836130d8565b9150613925826138be565b604082019050919050565b600060208201905081810360008301526139498161390d565b9050919050565b7f4552433732313a20617070726f76652063616c6c6572206973206e6f74206f7760008201527f6e6572206e6f7220617070726f76656420666f7220616c6c0000000000000000602082015250565b60006139ac6038836130d8565b91506139b782613950565b604082019050919050565b600060208201905081810360008301526139db8161399f565b9050919050565b7f4552433732313a207472616e736665722063616c6c6572206973206e6f74206f60008201527f776e6572206e6f7220617070726f766564000000000000000000000000000000602082015250565b6000613a3e6031836130d8565b9150613a49826139e2565b604082019050919050565b60006020820190508181036000830152613a6d81613a31565b9050919050565b7f455243373231456e756d657261626c653a206f776e657220696e646578206f7560008201527f74206f6620626f756e6473000000000000000000000000000000000000000000602082015250565b6000613ad0602b836130d8565b9150613adb82613a74565b604082019050919050565b60006020820190508181036000830152613aff81613ac3565b9050919050565b7f4e487b7100000000000000000000000000000000000000000000000000000000600052601160045260246000fd5b6000613b4082613188565b9150613b4b83613188565b9250827fffffffffffffffffffffffffffffffffffffffffffffffffffffffffffffffff03821115613b8057613b7f613b06565b5b828201905092915050565b7f596f752068617665207265616368656420746865206d6178206d696e7420616d60008201527f6f756e7400000000000000000000000000000000000000000000000000000000602082015250565b6000613be76024836130d8565b9150613bf282613b8b565b604082019050919050565b60006020820190508181036000830152613c1681613bda565b9050919050565b7f4d696e74696e6720686173206e6f742073746172746564207965740000000000600082015250565b6000613c53601b836130d8565b9150613c5e82613c1d565b602082019050919050565b60006020820190508181036000830152613c8281613c46565b9050919050565b6000613c9482613188565b9150613c9f83613188565b9250817fffffffffffffffffffffffffffffffffffffffffffffffffffffffffffffffff0483118215151615613cd857613cd7613b06565b5b828202905092915050565b6000613cee82613188565b91507fffffffffffffffffffffffffffffffffffffffffffffffffffffffffffffffff821415613d2157613d20613b06565b5b600182019050919050565b7f4e487b7100000000000000000000000000000000000000000000000000000000600052603260045260246000fd5b7f455243373231456e756d657261626c653a20676c6f62616c20696e646578206f60008201527f7574206f6620626f756e64730000000000000000000000000000000000000000602082015250565b6000613db7602c836130d8565b9150613dc282613d5b565b604082019050919050565b60006020820190508181036000830152613de681613daa565b9050919050565b7f4552433732313a206f776e657220717565727920666f72206e6f6e657869737460008201527f656e7420746f6b656e0000000000000000000000000000000000000000000000602082015250565b6000613e496029836130d8565b9150613e5482613ded565b604082019050919050565b60006020820190508181036000830152613e7881613e3c565b9050919050565b7f4552433732313a2062616c616e636520717565727920666f7220746865207a6560008201527f726f206164647265737300000000000000000000000000000000000000000000602082015250565b6000613edb602a836130d8565b9150613ee682613e7f565b604082019050919050565b60006020820190508181036000830152613f0a81613ece565b9050919050565b7f4552433732313a20617070726f766520746f2063616c6c657200000000000000600082015250565b6000613f476019836130d8565b9150613f5282613f11565b602082019050919050565b60006020820190508181036000830152613f7681613f3a565b9050919050565b7f4552433732314d657461646174613a2055524920717565727920666f72206e6f60008201527f6e6578697374656e7420746f6b656e0000000000000000000000000000000000602082015250565b6000613fd9602f836130d8565b9150613fe482613f7d565b604082019050919050565b6000602082019050818103600083015261400881613fcc565b9050919050565b600081905092915050565b6000614025826130cd565b61402f818561400f565b935061403f8185602086016130e9565b80840191505092915050565b60008190508160005260206000209050919050565b6000815461406d816137fa565b614077818661400f565b9450600182166000811461409257600181146140a3576140d6565b60ff198316865281860193506140d6565b6140ac8561404b565b60005b838110156140ce578154818901526001820191506020810190506140af565b838801955050505b50505092915050565b60006140eb828661401a565b91506140f7828561401a565b91506141038284614060565b9150819050949350505050565b7f4f776e61626c653a206e6577206f776e657220697320746865207a65726f206160008201527f6464726573730000000000000000000000000000000000000000000000000000602082015250565b600061416c6026836130d8565b915061417782614110565b604082019050919050565b6000602082019050818103600083015261419b8161415f565b9050919050565b7f4552433732313a206f70657261746f7220717565727920666f72206e6f6e657860008201527f697374656e7420746f6b656e0000000000000000000000000000000000000000602082015250565b60006141fe602c836130d8565b9150614209826141a2565b604082019050919050565b6000602082019050818103600083015261422d816141f1565b9050919050565b7f4552433732313a207472616e73666572206f6620746f6b656e2074686174206960008201527f73206e6f74206f776e0000000000000000000000000000000000000000000000602082015250565b60006142906029836130d8565b915061429b82614234565b604082019050919050565b600060208201905081810360008301526142bf81614283565b9050919050565b7f4552433732313a207472616e7366657220746f20746865207a65726f2061646460008201527f7265737300000000000000000000000000000000000000000000000000000000602082015250565b60006143226024836130d8565b915061432d826142c6565b604082019050919050565b6000602082019050818103600083015261435181614315565b9050919050565b600061436382613188565b915061436e83613188565b92508282101561438157614380613b06565b5b828203905092915050565b7f4552433732313a207472616e7366657220746f206e6f6e20455243373231526560008201527f63656976657220696d706c656d656e7465720000000000000000000000000000602082015250565b60006143e86032836130d8565b91506143f38261438c565b604082019050919050565b60006020820190508181036000830152614417816143db565b9050919050565b7f4e487b7100000000000000000000000000000000000000000000000000000000600052601260045260246000fd5b600061445882613188565b915061446383613188565b9250826144735761447261441e565b5b828204905092915050565b600061448982613188565b915061449483613188565b9250826144a4576144a361441e565b5b828206905092915050565b600081519050919050565b600082825260208201905092915050565b60006144d6826144af565b6144e081856144ba565b93506144f08185602086016130e9565b6144f98161311c565b840191505092915050565b6000608082019050614519600083018761321d565b614526602083018661321d565b61453360408301856132b3565b818103606083015261454581846144cb565b905095945050505050565b60008151905061455f81612fe5565b92915050565b60006020828403121561457b5761457a612faf565b5b600061458984828501614550565b91505092915050565b7f4e487b7100000000000000000000000000000000000000000000000000000000600052603160045260246000fd5b7f4552433732313a206d696e7420746f20746865207a65726f2061646472657373600082015250565b60006145f76020836130d8565b9150614602826145c1565b602082019050919050565b60006020820190508181036000830152614626816145ea565b9050919050565b7f4552433732313a20746f6b656e20616c7265616479206d696e74656400000000600082015250565b6000614663601c836130d8565b915061466e8261462d565b602082019050919050565b6000602082019050818103600083015261469281614656565b905091905056fea2646970667358221220a2d851cf51ecf6f5af67e8aba134e41c635a809705f28cfe67c7e65b5337bc3064736f6c63430008090033",
  "immutableReferences": {},
  "source": "// SPDX-License-Identifier: GPL-3.0\n\n// Created by HashLips\n// The Nerdy Coder Clones\n\npragma solidity ^0.8.0;\n\nimport \"@openzeppelin/contracts/token/ERC721/extensions/ERC721Enumerable.sol\";\nimport \"@openzeppelin/contracts/access/Ownable.sol\";\n\ncontract TestRageFace is ERC721Enumerable, Ownable {\n  using Strings for uint256;\n\n  string public baseURI;\n  string public baseExtension = \".json\";\n  uint256 public cost = .05 ether;\n  uint256 public maxSupply = 10000;\n  uint256 public maxMintAmount = 50    ;\n  bool public paused = false;\n  mapping(address => bool) public whitelisted;\n\n  mapping(address => uint) minted;\n\n  uint public startDate;\n\n  constructor(\n    string memory _name,\n    string memory _symbol,\n    string memory _initBaseURI,\n    uint _startDate\n  ) ERC721(_name, _symbol) {\n    startDate = _startDate;\n    setBaseURI(_initBaseURI);\n    for (uint i = 0; i < 150; i++) {\n      _safeMint(msg.sender, i);\n    }\n\n  }\n\n  // internal\n  function _baseURI() internal view virtual override returns (string memory) {\n    return baseURI;\n  }\n\n  // public\n  function mint(address _to, uint256 _mintAmount) public payable {\n    uint256 supply = totalSupply();\n    require(!paused);\n    require(_mintAmount > 0);\n    require(minted[msg.sender] + _mintAmount <= maxMintAmount, \"You have reached the max mint amount\");\n    require(supply + _mintAmount <= maxSupply);\n    require(block.timestamp >= startDate, \"Minting has not started yet\");\n\n    if (msg.sender != owner()) {\n        if(whitelisted[msg.sender] != true) {\n          require(msg.value >= cost * _mintAmount);\n        }\n    }\n\n    minted[msg.sender] += _mintAmount;\n\n    for (uint256 i = 1; i <= _mintAmount; i++) {\n      _safeMint(_to, supply + i);\n    }\n  }\n\n  function walletOfOwner(address _owner)\n    public\n    view\n    returns (uint256[] memory)\n  {\n    uint256 ownerTokenCount = balanceOf(_owner);\n    uint256[] memory tokenIds = new uint256[](ownerTokenCount);\n    for (uint256 i; i < ownerTokenCount; i++) {\n      tokenIds[i] = tokenOfOwnerByIndex(_owner, i);\n    }\n    return tokenIds;\n  }\n\n  function tokenURI(uint256 tokenId)\n    public\n    view\n    virtual\n    override\n    returns (string memory)\n  {\n    require(\n      _exists(tokenId),\n      \"ERC721Metadata: URI query for nonexistent token\"\n    );\n\n    string memory currentBaseURI = _baseURI();\n    return bytes(currentBaseURI).length > 0\n        ? string(abi.encodePacked(currentBaseURI, tokenId.toString(), baseExtension))\n        : \"\";\n  }\n\n  //only owner\n  function setCost(uint256 _newCost) public onlyOwner() {\n    cost = _newCost;\n  }\n\n  function setStartDate(uint _newDate) public onlyOwner() {\n    startDate = _newDate;\n  }\n\n  function setmaxMintAmount(uint256 _newmaxMintAmount) public onlyOwner() {\n    maxMintAmount = _newmaxMintAmount;\n  }\n\n  function setBaseURI(string memory _newBaseURI) public onlyOwner {\n    baseURI = _newBaseURI;\n  }\n\n  function setBaseExtension(string memory _newBaseExtension) public onlyOwner {\n    baseExtension = _newBaseExtension;\n  }\n\n  function pause(bool _state) public onlyOwner {\n    paused = _state;\n  }\n \n function whitelistUser(address _user) public onlyOwner {\n    whitelisted[_user] = true;\n  }\n \n  function removeWhitelistUser(address _user) public onlyOwner {\n    whitelisted[_user] = false;\n  }\n\n  function withdraw() public payable onlyOwner {\n    require(payable(msg.sender).send(address(this).balance));\n  }\n}",
  "sourcePath": "/Users/israeladelaja/Desktop/RageFace/contracts/TestRageFace.sol",
  "compiler": {
    "name": "solc",
    "version": "0.8.9+commit.e5eed63a.Emscripten.clang"
  },
  "schemaVersion": "3.4.2",
  "updatedAt": "2021-10-01T02:42:55.803Z",
  "devdoc": {
    "kind": "dev",
    "methods": {
      "approve(address,uint256)": {
        "details": "See {IERC721-approve}."
      },
      "balanceOf(address)": {
        "details": "See {IERC721-balanceOf}."
      },
      "getApproved(uint256)": {
        "details": "See {IERC721-getApproved}."
      },
      "isApprovedForAll(address,address)": {
        "details": "See {IERC721-isApprovedForAll}."
      },
      "name()": {
        "details": "See {IERC721Metadata-name}."
      },
      "owner()": {
        "details": "Returns the address of the current owner."
      },
      "ownerOf(uint256)": {
        "details": "See {IERC721-ownerOf}."
      },
      "renounceOwnership()": {
        "details": "Leaves the contract without owner. It will not be possible to call `onlyOwner` functions anymore. Can only be called by the current owner. NOTE: Renouncing ownership will leave the contract without an owner, thereby removing any functionality that is only available to the owner."
      },
      "safeTransferFrom(address,address,uint256)": {
        "details": "See {IERC721-safeTransferFrom}."
      },
      "safeTransferFrom(address,address,uint256,bytes)": {
        "details": "See {IERC721-safeTransferFrom}."
      },
      "setApprovalForAll(address,bool)": {
        "details": "See {IERC721-setApprovalForAll}."
      },
      "supportsInterface(bytes4)": {
        "details": "See {IERC165-supportsInterface}."
      },
      "symbol()": {
        "details": "See {IERC721Metadata-symbol}."
      },
      "tokenByIndex(uint256)": {
        "details": "See {IERC721Enumerable-tokenByIndex}."
      },
      "tokenOfOwnerByIndex(address,uint256)": {
        "details": "See {IERC721Enumerable-tokenOfOwnerByIndex}."
      },
      "tokenURI(uint256)": {
        "details": "See {IERC721Metadata-tokenURI}."
      },
      "totalSupply()": {
        "details": "See {IERC721Enumerable-totalSupply}."
      },
      "transferFrom(address,address,uint256)": {
        "details": "See {IERC721-transferFrom}."
      },
      "transferOwnership(address)": {
        "details": "Transfers ownership of the contract to a new account (`newOwner`). Can only be called by the current owner."
      }
    },
    "version": 1
  },
  "userdoc": {
    "kind": "user",
    "methods": {},
    "version": 1
  }
}